{
	"contracts/9_mosguo_03.sol": {
		"Demo2": {
			"abi": [
				{
					"inputs": [],
					"name": "getResult",
					"outputs": [
						{
							"internalType": "string",
							"name": "",
							"type": "string"
						}
					],
					"stateMutability": "pure",
					"type": "function"
				}
			],
			"devdoc": {
				"details": "demo smart constract ",
				"kind": "dev",
				"methods": {},
				"title": "Demo",
				"version": 1
			},
			"evm": {
				"assembly": "    /* \"contracts/9_mosguo_03.sol\":119:820  contract Demo2 {\r... */\n  mstore(0x40, 0x80)\n  callvalue\n  dup1\n  iszero\n  tag_1\n  jumpi\n  0x00\n  dup1\n  revert\ntag_1:\n  pop\n  dataSize(sub_0)\n  dup1\n  dataOffset(sub_0)\n  0x00\n  codecopy\n  0x00\n  return\nstop\n\nsub_0: assembly {\n        /* \"contracts/9_mosguo_03.sol\":119:820  contract Demo2 {\r... */\n      mstore(0x40, 0x80)\n      callvalue\n      dup1\n      iszero\n      tag_1\n      jumpi\n      0x00\n      dup1\n      revert\n    tag_1:\n      pop\n      jumpi(tag_2, lt(calldatasize, 0x04))\n      shr(0xe0, calldataload(0x00))\n      dup1\n      0xde292789\n      eq\n      tag_3\n      jumpi\n    tag_2:\n      0x00\n      dup1\n      revert\n        /* \"contracts/9_mosguo_03.sol\":262:395  function getResult() public pure returns (string memory) {\r... */\n    tag_3:\n      tag_4\n      tag_5\n      jump\t// in\n    tag_4:\n      mload(0x40)\n      dup1\n      dup1\n      0x20\n      add\n      dup3\n      dup2\n      sub\n      dup3\n      mstore\n      dup4\n      dup2\n      dup2\n      mload\n      dup2\n      mstore\n      0x20\n      add\n      swap2\n      pop\n      dup1\n      mload\n      swap1\n      0x20\n      add\n      swap1\n      dup1\n      dup4\n      dup4\n      0x00\n    tag_6:\n      dup4\n      dup2\n      lt\n      iszero\n      tag_8\n      jumpi\n      dup1\n      dup3\n      add\n      mload\n      dup2\n      dup5\n      add\n      mstore\n      0x20\n      dup2\n      add\n      swap1\n      pop\n      jump(tag_6)\n    tag_8:\n      pop\n      pop\n      pop\n      pop\n      swap1\n      pop\n      swap1\n      dup2\n      add\n      swap1\n      0x1f\n      and\n      dup1\n      iszero\n      tag_9\n      jumpi\n      dup1\n      dup3\n      sub\n      dup1\n      mload\n      0x01\n      dup4\n      0x20\n      sub\n      0x0100\n      exp\n      sub\n      not\n      and\n      dup2\n      mstore\n      0x20\n      add\n      swap2\n      pop\n    tag_9:\n      pop\n      swap3\n      pop\n      pop\n      pop\n      mload(0x40)\n      dup1\n      swap2\n      sub\n      swap1\n      return\n    tag_5:\n        /* \"contracts/9_mosguo_03.sol\":304:317  string memory */\n      0x60\n        /* \"contracts/9_mosguo_03.sol\":330:344  uint256 result */\n      0x00\n        /* \"contracts/9_mosguo_03.sol\":345:346  8 */\n      0x08\n        /* \"contracts/9_mosguo_03.sol\":330:346  uint256 result=8 */\n      swap1\n      pop\n        /* \"contracts/9_mosguo_03.sol\":364:387  integerToString(result) */\n      tag_11\n        /* \"contracts/9_mosguo_03.sol\":380:386  result */\n      dup2\n        /* \"contracts/9_mosguo_03.sol\":364:379  integerToString */\n      tag_12\n        /* \"contracts/9_mosguo_03.sol\":364:387  integerToString(result) */\n      jump\t// in\n    tag_11:\n        /* \"contracts/9_mosguo_03.sol\":357:387  return integerToString(result) */\n      swap2\n      pop\n      pop\n        /* \"contracts/9_mosguo_03.sol\":262:395  function getResult() public pure returns (string memory) {\r... */\n      swap1\n      jump\t// out\n        /* \"contracts/9_mosguo_03.sol\":404:816  function integerToString(uint i) internal pure returns(string memory) {\r... */\n    tag_12:\n        /* \"contracts/9_mosguo_03.sol\":459:472  string memory */\n      0x60\n        /* \"contracts/9_mosguo_03.sol\":492:493  0 */\n      0x00\n        /* \"contracts/9_mosguo_03.sol\":489:490  i */\n      dup3\n        /* \"contracts/9_mosguo_03.sol\":489:493  i==0 */\n      eq\n        /* \"contracts/9_mosguo_03.sol\":485:505  if (i==0) return \"0\" */\n      iszero\n      tag_14\n      jumpi\n        /* \"contracts/9_mosguo_03.sol\":495:505  return \"0\" */\n      mload(0x40)\n      dup1\n      0x40\n      add\n      0x40\n      mstore\n      dup1\n      0x01\n      dup2\n      mstore\n      0x20\n      add\n      0x3000000000000000000000000000000000000000000000000000000000000000\n      dup2\n      mstore\n      pop\n      swap1\n      pop\n      jump(tag_13)\n        /* \"contracts/9_mosguo_03.sol\":485:505  if (i==0) return \"0\" */\n    tag_14:\n        /* \"contracts/9_mosguo_03.sol\":518:524  uint j */\n      0x00\n        /* \"contracts/9_mosguo_03.sol\":525:526  i */\n      dup3\n        /* \"contracts/9_mosguo_03.sol\":518:526  uint j=i */\n      swap1\n      pop\n        /* \"contracts/9_mosguo_03.sol\":537:545  uint len */\n      0x00\n        /* \"contracts/9_mosguo_03.sol\":556:622  while(j != 0) {\r... */\n    tag_15:\n        /* \"contracts/9_mosguo_03.sol\":567:568  0 */\n      0x00\n        /* \"contracts/9_mosguo_03.sol\":562:563  j */\n      dup3\n        /* \"contracts/9_mosguo_03.sol\":562:568  j != 0 */\n      eq\n        /* \"contracts/9_mosguo_03.sol\":556:622  while(j != 0) {\r... */\n      tag_16\n      jumpi\n        /* \"contracts/9_mosguo_03.sol\":585:590  len++ */\n      dup1\n      dup1\n      0x01\n      add\n      swap2\n      pop\n      pop\n        /* \"contracts/9_mosguo_03.sol\":608:610  10 */\n      0x0a\n        /* \"contracts/9_mosguo_03.sol\":605:610  j/=10 */\n      dup3\n      dup2\n      tag_17\n      jumpi\n      invalid\n    tag_17:\n      div\n      swap2\n      pop\n        /* \"contracts/9_mosguo_03.sol\":556:622  while(j != 0) {\r... */\n      jump(tag_15)\n    tag_16:\n        /* \"contracts/9_mosguo_03.sol\":632:649  bytes memory bstr */\n      0x60\n        /* \"contracts/9_mosguo_03.sol\":662:665  len */\n      dup2\n        /* \"contracts/9_mosguo_03.sol\":652:666  new bytes(len) */\n      0xffffffffffffffff\n      dup2\n      gt\n      dup1\n      iszero\n      tag_18\n      jumpi\n      0x00\n      dup1\n      revert\n    tag_18:\n      pop\n      mload(0x40)\n      swap1\n      dup1\n      dup3\n      mstore\n      dup1\n      0x1f\n      add\n      not(0x1f)\n      and\n      0x20\n      add\n      dup3\n      add\n      0x40\n      mstore\n      dup1\n      iszero\n      tag_19\n      jumpi\n      dup2\n      0x20\n      add\n      0x01\n      dup3\n      mul\n      dup1\n      calldatasize\n      dup4\n      calldatacopy\n      dup1\n      dup3\n      add\n      swap2\n      pop\n      pop\n      swap1\n      pop\n    tag_19:\n      pop\n        /* \"contracts/9_mosguo_03.sol\":632:666  bytes memory bstr = new bytes(len) */\n      swap1\n      pop\n        /* \"contracts/9_mosguo_03.sol\":677:683  uint k */\n      0x00\n        /* \"contracts/9_mosguo_03.sol\":690:691  1 */\n      0x01\n        /* \"contracts/9_mosguo_03.sol\":686:689  len */\n      dup4\n        /* \"contracts/9_mosguo_03.sol\":686:691  len-1 */\n      sub\n        /* \"contracts/9_mosguo_03.sol\":677:691  uint k = len-1 */\n      swap1\n      pop\n        /* \"contracts/9_mosguo_03.sol\":702:778  while (i!=0) {\r... */\n    tag_20:\n        /* \"contracts/9_mosguo_03.sol\":712:713  0 */\n      0x00\n        /* \"contracts/9_mosguo_03.sol\":709:710  i */\n      dup7\n        /* \"contracts/9_mosguo_03.sol\":709:713  i!=0 */\n      eq\n        /* \"contracts/9_mosguo_03.sol\":702:778  while (i!=0) {\r... */\n      tag_21\n      jumpi\n        /* \"contracts/9_mosguo_03.sol\":761:763  10 */\n      0x0a\n        /* \"contracts/9_mosguo_03.sol\":759:760  i */\n      dup7\n        /* \"contracts/9_mosguo_03.sol\":759:763  i%10 */\n      dup2\n      tag_22\n      jumpi\n      invalid\n    tag_22:\n      mod\n        /* \"contracts/9_mosguo_03.sol\":755:757  48 */\n      0x30\n        /* \"contracts/9_mosguo_03.sol\":755:764  48+(i%10) */\n      add\n        /* \"contracts/9_mosguo_03.sol\":742:766  bytes1(uint8(48+(i%10))) */\n      0xf8\n      shl\n        /* \"contracts/9_mosguo_03.sol\":730:734  bstr */\n      dup3\n        /* \"contracts/9_mosguo_03.sol\":735:738  k-- */\n      dup3\n      dup1\n      0x01\n      swap1\n      sub\n      swap4\n      pop\n        /* \"contracts/9_mosguo_03.sol\":730:739  bstr[k--] */\n      dup2\n      mload\n      dup2\n      lt\n      tag_23\n      jumpi\n      invalid\n    tag_23:\n      0x20\n      add\n      add\n        /* \"contracts/9_mosguo_03.sol\":730:766  bstr[k--] = bytes1(uint8(48+(i%10))) */\n      swap1\n      not(0xffffffffffffffffffffffffffffffffffffffffffffffffffffffffffffff)\n      and\n      swap1\n      dup2\n      0x00\n      byte\n      swap1\n      mstore8\n      pop\n        /* \"contracts/9_mosguo_03.sol\":702:778  while (i!=0) {\r... */\n      jump(tag_20)\n    tag_21:\n        /* \"contracts/9_mosguo_03.sol\":802:806  bstr */\n      dup2\n        /* \"contracts/9_mosguo_03.sol\":788:807  return string(bstr) */\n      swap5\n      pop\n      pop\n      pop\n      pop\n      pop\n        /* \"contracts/9_mosguo_03.sol\":404:816  function integerToString(uint i) internal pure returns(string memory) {\r... */\n    tag_13:\n      swap2\n      swap1\n      pop\n      jump\t// out\n\n    auxdata: 0xa264697066735822122037e78e8cc79ca7499b962840507663346972491a1d053907408532159e93e6fd64736f6c63430007040033\n}\n",
				"bytecode": {
					"linkReferences": {},
					"object": "608060405234801561001057600080fd5b50610237806100206000396000f3fe608060405234801561001057600080fd5b506004361061002b5760003560e01c8063de29278914610030575b600080fd5b6100386100b3565b6040518080602001828103825283818151815260200191508051906020019080838360005b8381101561007857808201518184015260208101905061005d565b50505050905090810190601f1680156100a55780820380516001836020036101000a031916815260200191505b509250505060405180910390f35b60606000600890506100c4816100ca565b91505090565b60606000821415610112576040518060400160405280600181526020017f300000000000000000000000000000000000000000000000000000000000000081525090506101fc565b600082905060005b6000821461013c578080600101915050600a828161013457fe5b04915061011a565b60608167ffffffffffffffff8111801561015557600080fd5b506040519080825280601f01601f1916602001820160405280156101885781602001600182028036833780820191505090505b50905060006001830390505b600086146101f457600a86816101a657fe5b0660300160f81b828280600190039350815181106101c057fe5b60200101907effffffffffffffffffffffffffffffffffffffffffffffffffffffffffffff1916908160001a905350610194565b819450505050505b91905056fea264697066735822122037e78e8cc79ca7499b962840507663346972491a1d053907408532159e93e6fd64736f6c63430007040033",
					"opcodes": "PUSH1 0x80 PUSH1 0x40 MSTORE CALLVALUE DUP1 ISZERO PUSH2 0x10 JUMPI PUSH1 0x0 DUP1 REVERT JUMPDEST POP PUSH2 0x237 DUP1 PUSH2 0x20 PUSH1 0x0 CODECOPY PUSH1 0x0 RETURN INVALID PUSH1 0x80 PUSH1 0x40 MSTORE CALLVALUE DUP1 ISZERO PUSH2 0x10 JUMPI PUSH1 0x0 DUP1 REVERT JUMPDEST POP PUSH1 0x4 CALLDATASIZE LT PUSH2 0x2B JUMPI PUSH1 0x0 CALLDATALOAD PUSH1 0xE0 SHR DUP1 PUSH4 0xDE292789 EQ PUSH2 0x30 JUMPI JUMPDEST PUSH1 0x0 DUP1 REVERT JUMPDEST PUSH2 0x38 PUSH2 0xB3 JUMP JUMPDEST PUSH1 0x40 MLOAD DUP1 DUP1 PUSH1 0x20 ADD DUP3 DUP2 SUB DUP3 MSTORE DUP4 DUP2 DUP2 MLOAD DUP2 MSTORE PUSH1 0x20 ADD SWAP2 POP DUP1 MLOAD SWAP1 PUSH1 0x20 ADD SWAP1 DUP1 DUP4 DUP4 PUSH1 0x0 JUMPDEST DUP4 DUP2 LT ISZERO PUSH2 0x78 JUMPI DUP1 DUP3 ADD MLOAD DUP2 DUP5 ADD MSTORE PUSH1 0x20 DUP2 ADD SWAP1 POP PUSH2 0x5D JUMP JUMPDEST POP POP POP POP SWAP1 POP SWAP1 DUP2 ADD SWAP1 PUSH1 0x1F AND DUP1 ISZERO PUSH2 0xA5 JUMPI DUP1 DUP3 SUB DUP1 MLOAD PUSH1 0x1 DUP4 PUSH1 0x20 SUB PUSH2 0x100 EXP SUB NOT AND DUP2 MSTORE PUSH1 0x20 ADD SWAP2 POP JUMPDEST POP SWAP3 POP POP POP PUSH1 0x40 MLOAD DUP1 SWAP2 SUB SWAP1 RETURN JUMPDEST PUSH1 0x60 PUSH1 0x0 PUSH1 0x8 SWAP1 POP PUSH2 0xC4 DUP2 PUSH2 0xCA JUMP JUMPDEST SWAP2 POP POP SWAP1 JUMP JUMPDEST PUSH1 0x60 PUSH1 0x0 DUP3 EQ ISZERO PUSH2 0x112 JUMPI PUSH1 0x40 MLOAD DUP1 PUSH1 0x40 ADD PUSH1 0x40 MSTORE DUP1 PUSH1 0x1 DUP2 MSTORE PUSH1 0x20 ADD PUSH32 0x3000000000000000000000000000000000000000000000000000000000000000 DUP2 MSTORE POP SWAP1 POP PUSH2 0x1FC JUMP JUMPDEST PUSH1 0x0 DUP3 SWAP1 POP PUSH1 0x0 JUMPDEST PUSH1 0x0 DUP3 EQ PUSH2 0x13C JUMPI DUP1 DUP1 PUSH1 0x1 ADD SWAP2 POP POP PUSH1 0xA DUP3 DUP2 PUSH2 0x134 JUMPI INVALID JUMPDEST DIV SWAP2 POP PUSH2 0x11A JUMP JUMPDEST PUSH1 0x60 DUP2 PUSH8 0xFFFFFFFFFFFFFFFF DUP2 GT DUP1 ISZERO PUSH2 0x155 JUMPI PUSH1 0x0 DUP1 REVERT JUMPDEST POP PUSH1 0x40 MLOAD SWAP1 DUP1 DUP3 MSTORE DUP1 PUSH1 0x1F ADD PUSH1 0x1F NOT AND PUSH1 0x20 ADD DUP3 ADD PUSH1 0x40 MSTORE DUP1 ISZERO PUSH2 0x188 JUMPI DUP2 PUSH1 0x20 ADD PUSH1 0x1 DUP3 MUL DUP1 CALLDATASIZE DUP4 CALLDATACOPY DUP1 DUP3 ADD SWAP2 POP POP SWAP1 POP JUMPDEST POP SWAP1 POP PUSH1 0x0 PUSH1 0x1 DUP4 SUB SWAP1 POP JUMPDEST PUSH1 0x0 DUP7 EQ PUSH2 0x1F4 JUMPI PUSH1 0xA DUP7 DUP2 PUSH2 0x1A6 JUMPI INVALID JUMPDEST MOD PUSH1 0x30 ADD PUSH1 0xF8 SHL DUP3 DUP3 DUP1 PUSH1 0x1 SWAP1 SUB SWAP4 POP DUP2 MLOAD DUP2 LT PUSH2 0x1C0 JUMPI INVALID JUMPDEST PUSH1 0x20 ADD ADD SWAP1 PUSH31 0xFFFFFFFFFFFFFFFFFFFFFFFFFFFFFFFFFFFFFFFFFFFFFFFFFFFFFFFFFFFFFF NOT AND SWAP1 DUP2 PUSH1 0x0 BYTE SWAP1 MSTORE8 POP PUSH2 0x194 JUMP JUMPDEST DUP2 SWAP5 POP POP POP POP POP JUMPDEST SWAP2 SWAP1 POP JUMP INVALID LOG2 PUSH5 0x6970667358 0x22 SLT KECCAK256 CALLDATACOPY 0xE7 DUP15 DUP13 0xC7 SWAP13 0xA7 0x49 SWAP12 SWAP7 0x28 BLOCKHASH POP PUSH23 0x63346972491A1D053907408532159E93E6FD64736F6C63 NUMBER STOP SMOD DIV STOP CALLER "
				},
				"gasEstimates": {
					"creation": {
						"codeDepositCost": "113400",
						"executionCost": "159",
						"totalCost": "113559"
					},
					"external": {
						"getResult()": "infinite"
					},
					"internal": {
						"integerToString(uint256)": "infinite"
					}
				},
				"methodIdentifiers": {
					"getResult()": "de292789"
				}
			},
			"storageLayout": {
				"storage": [],
				"types": null
			},
			"userdoc": {
				"kind": "user",
				"methods": {},
				"version": 1
			}
		}
	}
}