{
	"contracts/Demo4.sol": {
		"Demo4": {
			"abi": [
				{
					"inputs": [],
					"name": "getCurrentSize",
					"outputs": [
						{
							"internalType": "enum Demo4.StarbuckSize",
							"name": "",
							"type": "uint8"
						}
					],
					"stateMutability": "view",
					"type": "function"
				},
				{
					"inputs": [],
					"name": "getDefaultSize",
					"outputs": [
						{
							"internalType": "enum Demo4.StarbuckSize",
							"name": "",
							"type": "uint8"
						}
					],
					"stateMutability": "pure",
					"type": "function"
				},
				{
					"inputs": [],
					"name": "getDefaultSize2",
					"outputs": [
						{
							"internalType": "uint256",
							"name": "",
							"type": "uint256"
						}
					],
					"stateMutability": "pure",
					"type": "function"
				},
				{
					"inputs": [],
					"name": "setVenti",
					"outputs": [],
					"stateMutability": "nonpayable",
					"type": "function"
				}
			],
			"devdoc": {
				"kind": "dev",
				"methods": {},
				"version": 1
			},
			"evm": {
				"assembly": "    /* \"contracts/Demo4.sol\":62:618  contract Demo4 {\r... */\n  mstore(0x40, 0x80)\n  callvalue\n  dup1\n  iszero\n  tag_1\n  jumpi\n  0x00\n  dup1\n  revert\ntag_1:\n  pop\n  dataSize(sub_0)\n  dup1\n  dataOffset(sub_0)\n  0x00\n  codecopy\n  0x00\n  return\nstop\n\nsub_0: assembly {\n        /* \"contracts/Demo4.sol\":62:618  contract Demo4 {\r... */\n      mstore(0x40, 0x80)\n      callvalue\n      dup1\n      iszero\n      tag_1\n      jumpi\n      0x00\n      dup1\n      revert\n    tag_1:\n      pop\n      jumpi(tag_2, lt(calldatasize, 0x04))\n      shr(0xe0, calldataload(0x00))\n      dup1\n      0x1759f920\n      eq\n      tag_3\n      jumpi\n      dup1\n      0x1d8beb3c\n      eq\n      tag_4\n      jumpi\n      dup1\n      0xc7443193\n      eq\n      tag_5\n      jumpi\n      dup1\n      0xf0849992\n      eq\n      tag_6\n      jumpi\n    tag_2:\n      0x00\n      dup1\n      revert\n        /* \"contracts/Demo4.sol\":311:402  function getCurrentSize() public view returns (StarbuckSize) {\r... */\n    tag_3:\n      tag_7\n      tag_8\n      jump\t// in\n    tag_7:\n      mload(0x40)\n      dup1\n      dup3\n      0x04\n      dup2\n      gt\n      iszero\n      tag_9\n      jumpi\n      invalid\n    tag_9:\n      dup2\n      mstore\n      0x20\n      add\n      swap2\n      pop\n      pop\n      mload(0x40)\n      dup1\n      swap2\n      sub\n      swap1\n      return\n        /* \"contracts/Demo4.sol\":228:299  function setVenti() public {\r... */\n    tag_4:\n      tag_10\n      tag_11\n      jump\t// in\n    tag_10:\n      stop\n        /* \"contracts/Demo4.sol\":512:615  function getDefaultSize2() public pure returns (uint256) {\r... */\n    tag_5:\n      tag_12\n      tag_13\n      jump\t// in\n    tag_12:\n      mload(0x40)\n      dup1\n      dup3\n      dup2\n      mstore\n      0x20\n      add\n      swap2\n      pop\n      pop\n      mload(0x40)\n      dup1\n      swap2\n      sub\n      swap1\n      return\n        /* \"contracts/Demo4.sol\":408:506  function getDefaultSize() public pure returns (StarbuckSize) {\r... */\n    tag_6:\n      tag_14\n      tag_15\n      jump\t// in\n    tag_14:\n      mload(0x40)\n      dup1\n      dup3\n      0x04\n      dup2\n      gt\n      iszero\n      tag_16\n      jumpi\n      invalid\n    tag_16:\n      dup2\n      mstore\n      0x20\n      add\n      swap2\n      pop\n      pop\n      mload(0x40)\n      dup1\n      swap2\n      sub\n      swap1\n      return\n        /* \"contracts/Demo4.sol\":311:402  function getCurrentSize() public view returns (StarbuckSize) {\r... */\n    tag_8:\n        /* \"contracts/Demo4.sol\":358:370  StarbuckSize */\n      0x00\n        /* \"contracts/Demo4.sol\":390:394  size */\n      dup1\n      0x00\n      swap1\n      sload\n      swap1\n      0x0100\n      exp\n      swap1\n      div\n      0xff\n      and\n        /* \"contracts/Demo4.sol\":383:394  return size */\n      swap1\n      pop\n        /* \"contracts/Demo4.sol\":311:402  function getCurrentSize() public view returns (StarbuckSize) {\r... */\n      swap1\n      jump\t// out\n        /* \"contracts/Demo4.sol\":228:299  function setVenti() public {\r... */\n    tag_11:\n        /* \"contracts/Demo4.sol\":273:291  StarbuckSize.VENTI */\n      0x03\n        /* \"contracts/Demo4.sol\":266:270  size */\n      0x00\n      dup1\n        /* \"contracts/Demo4.sol\":266:291  size = StarbuckSize.VENTI */\n      0x0100\n      exp\n      dup2\n      sload\n      dup2\n      0xff\n      mul\n      not\n      and\n      swap1\n      dup4\n      0x04\n      dup2\n      gt\n      iszero\n      tag_19\n      jumpi\n      invalid\n    tag_19:\n      mul\n      or\n      swap1\n      sstore\n      pop\n        /* \"contracts/Demo4.sol\":228:299  function setVenti() public {\r... */\n      jump\t// out\n        /* \"contracts/Demo4.sol\":512:615  function getDefaultSize2() public pure returns (uint256) {\r... */\n    tag_13:\n        /* \"contracts/Demo4.sol\":560:567  uint256 */\n      0x00\n        /* \"contracts/Demo4.sol\":204:221  StarbuckSize.TALL */\n      0x01\n        /* \"contracts/Demo4.sol\":587:607  uint256(defaultSize) */\n      0x04\n      dup2\n      gt\n      iszero\n      tag_21\n      jumpi\n      invalid\n    tag_21:\n        /* \"contracts/Demo4.sol\":580:607  return uint256(defaultSize) */\n      swap1\n      pop\n        /* \"contracts/Demo4.sol\":512:615  function getDefaultSize2() public pure returns (uint256) {\r... */\n      swap1\n      jump\t// out\n        /* \"contracts/Demo4.sol\":408:506  function getDefaultSize() public pure returns (StarbuckSize) {\r... */\n    tag_15:\n        /* \"contracts/Demo4.sol\":455:467  StarbuckSize */\n      0x00\n        /* \"contracts/Demo4.sol\":204:221  StarbuckSize.TALL */\n      0x01\n        /* \"contracts/Demo4.sol\":480:498  return defaultSize */\n      swap1\n      pop\n        /* \"contracts/Demo4.sol\":408:506  function getDefaultSize() public pure returns (StarbuckSize) {\r... */\n      swap1\n      jump\t// out\n\n    auxdata: 0xa2646970667358221220ee80161917faa87eab0e7946f6c23fda44f4100c27ba999b5191f351c02075ac64736f6c63430007040033\n}\n",
				"bytecode": {
					"linkReferences": {},
					"object": "608060405234801561001057600080fd5b50610159806100206000396000f3fe608060405234801561001057600080fd5b506004361061004c5760003560e01c80631759f920146100515780631d8beb3c1461007a578063c744319314610084578063f0849992146100a2575b600080fd5b6100596100cb565b6040518082600481111561006957fe5b815260200191505060405180910390f35b6100826100e1565b005b61008c610106565b6040518082815260200191505060405180910390f35b6100aa61011a565b604051808260048111156100ba57fe5b815260200191505060405180910390f35b60008060009054906101000a900460ff16905090565b60036000806101000a81548160ff021916908360048111156100ff57fe5b0217905550565b60006001600481111561011557fe5b905090565b6000600190509056fea2646970667358221220ee80161917faa87eab0e7946f6c23fda44f4100c27ba999b5191f351c02075ac64736f6c63430007040033",
					"opcodes": "PUSH1 0x80 PUSH1 0x40 MSTORE CALLVALUE DUP1 ISZERO PUSH2 0x10 JUMPI PUSH1 0x0 DUP1 REVERT JUMPDEST POP PUSH2 0x159 DUP1 PUSH2 0x20 PUSH1 0x0 CODECOPY PUSH1 0x0 RETURN INVALID PUSH1 0x80 PUSH1 0x40 MSTORE CALLVALUE DUP1 ISZERO PUSH2 0x10 JUMPI PUSH1 0x0 DUP1 REVERT JUMPDEST POP PUSH1 0x4 CALLDATASIZE LT PUSH2 0x4C JUMPI PUSH1 0x0 CALLDATALOAD PUSH1 0xE0 SHR DUP1 PUSH4 0x1759F920 EQ PUSH2 0x51 JUMPI DUP1 PUSH4 0x1D8BEB3C EQ PUSH2 0x7A JUMPI DUP1 PUSH4 0xC7443193 EQ PUSH2 0x84 JUMPI DUP1 PUSH4 0xF0849992 EQ PUSH2 0xA2 JUMPI JUMPDEST PUSH1 0x0 DUP1 REVERT JUMPDEST PUSH2 0x59 PUSH2 0xCB JUMP JUMPDEST PUSH1 0x40 MLOAD DUP1 DUP3 PUSH1 0x4 DUP2 GT ISZERO PUSH2 0x69 JUMPI INVALID JUMPDEST DUP2 MSTORE PUSH1 0x20 ADD SWAP2 POP POP PUSH1 0x40 MLOAD DUP1 SWAP2 SUB SWAP1 RETURN JUMPDEST PUSH2 0x82 PUSH2 0xE1 JUMP JUMPDEST STOP JUMPDEST PUSH2 0x8C PUSH2 0x106 JUMP JUMPDEST PUSH1 0x40 MLOAD DUP1 DUP3 DUP2 MSTORE PUSH1 0x20 ADD SWAP2 POP POP PUSH1 0x40 MLOAD DUP1 SWAP2 SUB SWAP1 RETURN JUMPDEST PUSH2 0xAA PUSH2 0x11A JUMP JUMPDEST PUSH1 0x40 MLOAD DUP1 DUP3 PUSH1 0x4 DUP2 GT ISZERO PUSH2 0xBA JUMPI INVALID JUMPDEST DUP2 MSTORE PUSH1 0x20 ADD SWAP2 POP POP PUSH1 0x40 MLOAD DUP1 SWAP2 SUB SWAP1 RETURN JUMPDEST PUSH1 0x0 DUP1 PUSH1 0x0 SWAP1 SLOAD SWAP1 PUSH2 0x100 EXP SWAP1 DIV PUSH1 0xFF AND SWAP1 POP SWAP1 JUMP JUMPDEST PUSH1 0x3 PUSH1 0x0 DUP1 PUSH2 0x100 EXP DUP2 SLOAD DUP2 PUSH1 0xFF MUL NOT AND SWAP1 DUP4 PUSH1 0x4 DUP2 GT ISZERO PUSH2 0xFF JUMPI INVALID JUMPDEST MUL OR SWAP1 SSTORE POP JUMP JUMPDEST PUSH1 0x0 PUSH1 0x1 PUSH1 0x4 DUP2 GT ISZERO PUSH2 0x115 JUMPI INVALID JUMPDEST SWAP1 POP SWAP1 JUMP JUMPDEST PUSH1 0x0 PUSH1 0x1 SWAP1 POP SWAP1 JUMP INVALID LOG2 PUSH5 0x6970667358 0x22 SLT KECCAK256 0xEE DUP1 AND NOT OR STATICCALL 0xA8 PUSH31 0xAB0E7946F6C23FDA44F4100C27BA999B5191F351C02075AC64736F6C634300 SMOD DIV STOP CALLER "
				},
				"gasEstimates": {
					"creation": {
						"codeDepositCost": "69000",
						"executionCost": "117",
						"totalCost": "69117"
					},
					"external": {
						"getCurrentSize()": "1053",
						"getDefaultSize()": "283",
						"getDefaultSize2()": "261",
						"setVenti()": "21031"
					}
				},
				"methodIdentifiers": {
					"getCurrentSize()": "1759f920",
					"getDefaultSize()": "f0849992",
					"getDefaultSize2()": "c7443193",
					"setVenti()": "1d8beb3c"
				}
			},
			"storageLayout": {
				"storage": [
					{
						"astId": 9,
						"contract": "contracts/Demo4.sol:Demo4",
						"label": "size",
						"offset": 0,
						"slot": "0",
						"type": "t_enum(StarbuckSize)7"
					}
				],
				"types": {
					"t_enum(StarbuckSize)7": {
						"encoding": "inplace",
						"label": "enum Demo4.StarbuckSize",
						"numberOfBytes": "1"
					}
				}
			},
			"userdoc": {
				"kind": "user",
				"methods": {},
				"version": 1
			}
		}
	}
}