{
	"contracts/Demo4.sol": {
		"Demo4": {
			"abi": [
				{
					"inputs": [],
					"name": "getCurrentSize",
					"outputs": [
						{
							"internalType": "enum Demo4.StarbuckSize",
							"name": "",
							"type": "uint8"
						}
					],
					"stateMutability": "view",
					"type": "function"
				},
				{
					"inputs": [],
					"name": "getDefaultSize",
					"outputs": [
						{
							"internalType": "enum Demo4.StarbuckSize",
							"name": "",
							"type": "uint8"
						}
					],
					"stateMutability": "pure",
					"type": "function"
				},
				{
					"inputs": [],
					"name": "getDefaultSize2",
					"outputs": [
						{
							"internalType": "uint256",
							"name": "",
							"type": "uint256"
						}
					],
					"stateMutability": "pure",
					"type": "function"
				},
				{
					"inputs": [
						{
							"internalType": "enum Demo4.StarbuckSize",
							"name": "size",
							"type": "uint8"
						}
					],
					"name": "setSize",
					"outputs": [],
					"stateMutability": "nonpayable",
					"type": "function"
				},
				{
					"inputs": [],
					"name": "setVenti",
					"outputs": [],
					"stateMutability": "nonpayable",
					"type": "function"
				}
			],
			"devdoc": {
				"kind": "dev",
				"methods": {},
				"version": 1
			},
			"evm": {
				"assembly": "    /* \"contracts/Demo4.sol\":62:691  contract Demo4 {\r... */\n  mstore(0x40, 0x80)\n  callvalue\n  dup1\n  iszero\n  tag_1\n  jumpi\n  0x00\n  dup1\n  revert\ntag_1:\n  pop\n  dataSize(sub_0)\n  dup1\n  dataOffset(sub_0)\n  0x00\n  codecopy\n  0x00\n  return\nstop\n\nsub_0: assembly {\n        /* \"contracts/Demo4.sol\":62:691  contract Demo4 {\r... */\n      mstore(0x40, 0x80)\n      callvalue\n      dup1\n      iszero\n      tag_1\n      jumpi\n      0x00\n      dup1\n      revert\n    tag_1:\n      pop\n      jumpi(tag_2, lt(calldatasize, 0x04))\n      shr(0xe0, calldataload(0x00))\n      dup1\n      0x1759f920\n      eq\n      tag_3\n      jumpi\n      dup1\n      0x1d8beb3c\n      eq\n      tag_4\n      jumpi\n      dup1\n      0x99400a5a\n      eq\n      tag_5\n      jumpi\n      dup1\n      0xc7443193\n      eq\n      tag_6\n      jumpi\n      dup1\n      0xf0849992\n      eq\n      tag_7\n      jumpi\n    tag_2:\n      0x00\n      dup1\n      revert\n        /* \"contracts/Demo4.sol\":384:475  function getCurrentSize() public view returns (StarbuckSize) {\r... */\n    tag_3:\n      tag_8\n      tag_9\n      jump\t// in\n    tag_8:\n      mload(0x40)\n      dup1\n      dup3\n      0x04\n      dup2\n      gt\n      iszero\n      tag_10\n      jumpi\n      invalid\n    tag_10:\n      dup2\n      mstore\n      0x20\n      add\n      swap2\n      pop\n      pop\n      mload(0x40)\n      dup1\n      swap2\n      sub\n      swap1\n      return\n        /* \"contracts/Demo4.sol\":228:299  function setVenti() public {\r... */\n    tag_4:\n      tag_11\n      tag_12\n      jump\t// in\n    tag_11:\n      stop\n        /* \"contracts/Demo4.sol\":305:378  function setSize(StarbuckSize size) public {\r... */\n    tag_5:\n      tag_13\n      0x04\n      dup1\n      calldatasize\n      sub\n      0x20\n      dup2\n      lt\n      iszero\n      tag_14\n      jumpi\n      0x00\n      dup1\n      revert\n    tag_14:\n      dup2\n      add\n      swap1\n      dup1\n      dup1\n      calldataload\n      0xff\n      and\n      swap1\n      0x20\n      add\n      swap1\n      swap3\n      swap2\n      swap1\n      pop\n      pop\n      pop\n      tag_15\n      jump\t// in\n    tag_13:\n      stop\n        /* \"contracts/Demo4.sol\":585:688  function getDefaultSize2() public pure returns (uint256) {\r... */\n    tag_6:\n      tag_16\n      tag_17\n      jump\t// in\n    tag_16:\n      mload(0x40)\n      dup1\n      dup3\n      dup2\n      mstore\n      0x20\n      add\n      swap2\n      pop\n      pop\n      mload(0x40)\n      dup1\n      swap2\n      sub\n      swap1\n      return\n        /* \"contracts/Demo4.sol\":481:579  function getDefaultSize() public pure returns (StarbuckSize) {\r... */\n    tag_7:\n      tag_18\n      tag_19\n      jump\t// in\n    tag_18:\n      mload(0x40)\n      dup1\n      dup3\n      0x04\n      dup2\n      gt\n      iszero\n      tag_20\n      jumpi\n      invalid\n    tag_20:\n      dup2\n      mstore\n      0x20\n      add\n      swap2\n      pop\n      pop\n      mload(0x40)\n      dup1\n      swap2\n      sub\n      swap1\n      return\n        /* \"contracts/Demo4.sol\":384:475  function getCurrentSize() public view returns (StarbuckSize) {\r... */\n    tag_9:\n        /* \"contracts/Demo4.sol\":431:443  StarbuckSize */\n      0x00\n        /* \"contracts/Demo4.sol\":463:467  size */\n      dup1\n      0x00\n      swap1\n      sload\n      swap1\n      0x0100\n      exp\n      swap1\n      div\n      0xff\n      and\n        /* \"contracts/Demo4.sol\":456:467  return size */\n      swap1\n      pop\n        /* \"contracts/Demo4.sol\":384:475  function getCurrentSize() public view returns (StarbuckSize) {\r... */\n      swap1\n      jump\t// out\n        /* \"contracts/Demo4.sol\":228:299  function setVenti() public {\r... */\n    tag_12:\n        /* \"contracts/Demo4.sol\":273:291  StarbuckSize.VENTI */\n      0x03\n        /* \"contracts/Demo4.sol\":266:270  size */\n      0x00\n      dup1\n        /* \"contracts/Demo4.sol\":266:291  size = StarbuckSize.VENTI */\n      0x0100\n      exp\n      dup2\n      sload\n      dup2\n      0xff\n      mul\n      not\n      and\n      swap1\n      dup4\n      0x04\n      dup2\n      gt\n      iszero\n      tag_23\n      jumpi\n      invalid\n    tag_23:\n      mul\n      or\n      swap1\n      sstore\n      pop\n        /* \"contracts/Demo4.sol\":228:299  function setVenti() public {\r... */\n      jump\t// out\n        /* \"contracts/Demo4.sol\":305:378  function setSize(StarbuckSize size) public {\r... */\n    tag_15:\n      pop\n      jump\t// out\n        /* \"contracts/Demo4.sol\":585:688  function getDefaultSize2() public pure returns (uint256) {\r... */\n    tag_17:\n        /* \"contracts/Demo4.sol\":633:640  uint256 */\n      0x00\n        /* \"contracts/Demo4.sol\":204:221  StarbuckSize.TALL */\n      0x01\n        /* \"contracts/Demo4.sol\":660:680  uint256(defaultSize) */\n      0x04\n      dup2\n      gt\n      iszero\n      tag_26\n      jumpi\n      invalid\n    tag_26:\n        /* \"contracts/Demo4.sol\":653:680  return uint256(defaultSize) */\n      swap1\n      pop\n        /* \"contracts/Demo4.sol\":585:688  function getDefaultSize2() public pure returns (uint256) {\r... */\n      swap1\n      jump\t// out\n        /* \"contracts/Demo4.sol\":481:579  function getDefaultSize() public pure returns (StarbuckSize) {\r... */\n    tag_19:\n        /* \"contracts/Demo4.sol\":528:540  StarbuckSize */\n      0x00\n        /* \"contracts/Demo4.sol\":204:221  StarbuckSize.TALL */\n      0x01\n        /* \"contracts/Demo4.sol\":553:571  return defaultSize */\n      swap1\n      pop\n        /* \"contracts/Demo4.sol\":481:579  function getDefaultSize() public pure returns (StarbuckSize) {\r... */\n      swap1\n      jump\t// out\n\n    auxdata: 0xa264697066735822122027e1708db87a34c6774ec12d8fe9f5927eed6978fbe4c8be6db5240a4c2d02ba64736f6c63430007040033\n}\n",
				"bytecode": {
					"linkReferences": {},
					"object": "608060405234801561001057600080fd5b50610198806100206000396000f3fe608060405234801561001057600080fd5b50600436106100575760003560e01c80631759f9201461005c5780631d8beb3c1461008557806399400a5a1461008f578063c7443193146100c0578063f0849992146100de575b600080fd5b610064610107565b6040518082600481111561007457fe5b815260200191505060405180910390f35b61008d61011d565b005b6100be600480360360208110156100a557600080fd5b81019080803560ff169060200190929190505050610142565b005b6100c8610145565b6040518082815260200191505060405180910390f35b6100e6610159565b604051808260048111156100f657fe5b815260200191505060405180910390f35b60008060009054906101000a900460ff16905090565b60036000806101000a81548160ff0219169083600481111561013b57fe5b0217905550565b50565b60006001600481111561015457fe5b905090565b6000600190509056fea264697066735822122027e1708db87a34c6774ec12d8fe9f5927eed6978fbe4c8be6db5240a4c2d02ba64736f6c63430007040033",
					"opcodes": "PUSH1 0x80 PUSH1 0x40 MSTORE CALLVALUE DUP1 ISZERO PUSH2 0x10 JUMPI PUSH1 0x0 DUP1 REVERT JUMPDEST POP PUSH2 0x198 DUP1 PUSH2 0x20 PUSH1 0x0 CODECOPY PUSH1 0x0 RETURN INVALID PUSH1 0x80 PUSH1 0x40 MSTORE CALLVALUE DUP1 ISZERO PUSH2 0x10 JUMPI PUSH1 0x0 DUP1 REVERT JUMPDEST POP PUSH1 0x4 CALLDATASIZE LT PUSH2 0x57 JUMPI PUSH1 0x0 CALLDATALOAD PUSH1 0xE0 SHR DUP1 PUSH4 0x1759F920 EQ PUSH2 0x5C JUMPI DUP1 PUSH4 0x1D8BEB3C EQ PUSH2 0x85 JUMPI DUP1 PUSH4 0x99400A5A EQ PUSH2 0x8F JUMPI DUP1 PUSH4 0xC7443193 EQ PUSH2 0xC0 JUMPI DUP1 PUSH4 0xF0849992 EQ PUSH2 0xDE JUMPI JUMPDEST PUSH1 0x0 DUP1 REVERT JUMPDEST PUSH2 0x64 PUSH2 0x107 JUMP JUMPDEST PUSH1 0x40 MLOAD DUP1 DUP3 PUSH1 0x4 DUP2 GT ISZERO PUSH2 0x74 JUMPI INVALID JUMPDEST DUP2 MSTORE PUSH1 0x20 ADD SWAP2 POP POP PUSH1 0x40 MLOAD DUP1 SWAP2 SUB SWAP1 RETURN JUMPDEST PUSH2 0x8D PUSH2 0x11D JUMP JUMPDEST STOP JUMPDEST PUSH2 0xBE PUSH1 0x4 DUP1 CALLDATASIZE SUB PUSH1 0x20 DUP2 LT ISZERO PUSH2 0xA5 JUMPI PUSH1 0x0 DUP1 REVERT JUMPDEST DUP2 ADD SWAP1 DUP1 DUP1 CALLDATALOAD PUSH1 0xFF AND SWAP1 PUSH1 0x20 ADD SWAP1 SWAP3 SWAP2 SWAP1 POP POP POP PUSH2 0x142 JUMP JUMPDEST STOP JUMPDEST PUSH2 0xC8 PUSH2 0x145 JUMP JUMPDEST PUSH1 0x40 MLOAD DUP1 DUP3 DUP2 MSTORE PUSH1 0x20 ADD SWAP2 POP POP PUSH1 0x40 MLOAD DUP1 SWAP2 SUB SWAP1 RETURN JUMPDEST PUSH2 0xE6 PUSH2 0x159 JUMP JUMPDEST PUSH1 0x40 MLOAD DUP1 DUP3 PUSH1 0x4 DUP2 GT ISZERO PUSH2 0xF6 JUMPI INVALID JUMPDEST DUP2 MSTORE PUSH1 0x20 ADD SWAP2 POP POP PUSH1 0x40 MLOAD DUP1 SWAP2 SUB SWAP1 RETURN JUMPDEST PUSH1 0x0 DUP1 PUSH1 0x0 SWAP1 SLOAD SWAP1 PUSH2 0x100 EXP SWAP1 DIV PUSH1 0xFF AND SWAP1 POP SWAP1 JUMP JUMPDEST PUSH1 0x3 PUSH1 0x0 DUP1 PUSH2 0x100 EXP DUP2 SLOAD DUP2 PUSH1 0xFF MUL NOT AND SWAP1 DUP4 PUSH1 0x4 DUP2 GT ISZERO PUSH2 0x13B JUMPI INVALID JUMPDEST MUL OR SWAP1 SSTORE POP JUMP JUMPDEST POP JUMP JUMPDEST PUSH1 0x0 PUSH1 0x1 PUSH1 0x4 DUP2 GT ISZERO PUSH2 0x154 JUMPI INVALID JUMPDEST SWAP1 POP SWAP1 JUMP JUMPDEST PUSH1 0x0 PUSH1 0x1 SWAP1 POP SWAP1 JUMP INVALID LOG2 PUSH5 0x6970667358 0x22 SLT KECCAK256 0x27 0xE1 PUSH17 0x8DB87A34C6774EC12D8FE9F5927EED6978 0xFB 0xE4 0xC8 0xBE PUSH14 0xB5240A4C2D02BA64736F6C634300 SMOD DIV STOP CALLER "
				},
				"gasEstimates": {
					"creation": {
						"codeDepositCost": "81600",
						"executionCost": "129",
						"totalCost": "81729"
					},
					"external": {
						"getCurrentSize()": "1053",
						"getDefaultSize()": "305",
						"getDefaultSize2()": "283",
						"setSize(uint8)": "256",
						"setVenti()": "21031"
					}
				},
				"methodIdentifiers": {
					"getCurrentSize()": "1759f920",
					"getDefaultSize()": "f0849992",
					"getDefaultSize2()": "c7443193",
					"setSize(uint8)": "99400a5a",
					"setVenti()": "1d8beb3c"
				}
			},
			"storageLayout": {
				"storage": [
					{
						"astId": 9,
						"contract": "contracts/Demo4.sol:Demo4",
						"label": "size",
						"offset": 0,
						"slot": "0",
						"type": "t_enum(StarbuckSize)7"
					}
				],
				"types": {
					"t_enum(StarbuckSize)7": {
						"encoding": "inplace",
						"label": "enum Demo4.StarbuckSize",
						"numberOfBytes": "1"
					}
				}
			},
			"userdoc": {
				"kind": "user",
				"methods": {},
				"version": 1
			}
		}
	}
}