{
	"contracts/9_mosguo_03.sol": {
		"Demo2": {
			"abi": [
				{
					"inputs": [],
					"name": "getResult",
					"outputs": [
						{
							"internalType": "string",
							"name": "",
							"type": "string"
						}
					],
					"stateMutability": "pure",
					"type": "function"
				}
			],
			"devdoc": {
				"details": "demo smart constract ",
				"kind": "dev",
				"methods": {},
				"title": "Demo",
				"version": 1
			},
			"evm": {
				"assembly": "    /* \"contracts/9_mosguo_03.sol\":119:857  contract Demo2 {\r... */\n  mstore(0x40, 0x80)\n  callvalue\n  dup1\n  iszero\n  tag_1\n  jumpi\n  0x00\n  dup1\n  revert\ntag_1:\n  pop\n  dataSize(sub_0)\n  dup1\n  dataOffset(sub_0)\n  0x00\n  codecopy\n  0x00\n  return\nstop\n\nsub_0: assembly {\n        /* \"contracts/9_mosguo_03.sol\":119:857  contract Demo2 {\r... */\n      mstore(0x40, 0x80)\n      callvalue\n      dup1\n      iszero\n      tag_1\n      jumpi\n      0x00\n      dup1\n      revert\n    tag_1:\n      pop\n      jumpi(tag_2, lt(calldatasize, 0x04))\n      shr(0xe0, calldataload(0x00))\n      dup1\n      0xde292789\n      eq\n      tag_3\n      jumpi\n    tag_2:\n      0x00\n      dup1\n      revert\n        /* \"contracts/9_mosguo_03.sol\":262:400  function getResult() public pure returns (string memory) {\r... */\n    tag_3:\n      tag_4\n      tag_5\n      jump\t// in\n    tag_4:\n      mload(0x40)\n      dup1\n      dup1\n      0x20\n      add\n      dup3\n      dup2\n      sub\n      dup3\n      mstore\n      dup4\n      dup2\n      dup2\n      mload\n      dup2\n      mstore\n      0x20\n      add\n      swap2\n      pop\n      dup1\n      mload\n      swap1\n      0x20\n      add\n      swap1\n      dup1\n      dup4\n      dup4\n      0x00\n    tag_6:\n      dup4\n      dup2\n      lt\n      iszero\n      tag_8\n      jumpi\n      dup1\n      dup3\n      add\n      mload\n      dup2\n      dup5\n      add\n      mstore\n      0x20\n      dup2\n      add\n      swap1\n      pop\n      jump(tag_6)\n    tag_8:\n      pop\n      pop\n      pop\n      pop\n      swap1\n      pop\n      swap1\n      dup2\n      add\n      swap1\n      0x1f\n      and\n      dup1\n      iszero\n      tag_9\n      jumpi\n      dup1\n      dup3\n      sub\n      dup1\n      mload\n      0x01\n      dup4\n      0x20\n      sub\n      0x0100\n      exp\n      sub\n      not\n      and\n      dup2\n      mstore\n      0x20\n      add\n      swap2\n      pop\n    tag_9:\n      pop\n      swap3\n      pop\n      pop\n      pop\n      mload(0x40)\n      dup1\n      swap2\n      sub\n      swap1\n      return\n    tag_5:\n        /* \"contracts/9_mosguo_03.sol\":304:317  string memory */\n      0x60\n        /* \"contracts/9_mosguo_03.sol\":330:344  uint256 result */\n      0x00\n        /* \"contracts/9_mosguo_03.sol\":347:351  8765 */\n      0x223d\n        /* \"contracts/9_mosguo_03.sol\":330:351  uint256 result = 8765 */\n      swap1\n      pop\n        /* \"contracts/9_mosguo_03.sol\":369:392  integerToString(result) */\n      tag_11\n        /* \"contracts/9_mosguo_03.sol\":385:391  result */\n      dup2\n        /* \"contracts/9_mosguo_03.sol\":369:384  integerToString */\n      tag_12\n        /* \"contracts/9_mosguo_03.sol\":369:392  integerToString(result) */\n      jump\t// in\n    tag_11:\n        /* \"contracts/9_mosguo_03.sol\":362:392  return integerToString(result) */\n      swap2\n      pop\n      pop\n        /* \"contracts/9_mosguo_03.sol\":262:400  function getResult() public pure returns (string memory) {\r... */\n      swap1\n      jump\t// out\n        /* \"contracts/9_mosguo_03.sol\":409:853  function integerToString(uint i) internal pure returns(string memory) {\r... */\n    tag_12:\n        /* \"contracts/9_mosguo_03.sol\":464:477  string memory */\n      0x60\n        /* \"contracts/9_mosguo_03.sol\":497:498  0 */\n      0x00\n        /* \"contracts/9_mosguo_03.sol\":494:495  i */\n      dup3\n        /* \"contracts/9_mosguo_03.sol\":494:498  i==0 */\n      eq\n        /* \"contracts/9_mosguo_03.sol\":490:515  if (i==0) { return \"0\"; } */\n      iszero\n      tag_14\n      jumpi\n        /* \"contracts/9_mosguo_03.sol\":502:512  return \"0\" */\n      mload(0x40)\n      dup1\n      0x40\n      add\n      0x40\n      mstore\n      dup1\n      0x01\n      dup2\n      mstore\n      0x20\n      add\n      0x3000000000000000000000000000000000000000000000000000000000000000\n      dup2\n      mstore\n      pop\n      swap1\n      pop\n      jump(tag_13)\n        /* \"contracts/9_mosguo_03.sol\":490:515  if (i==0) { return \"0\"; } */\n    tag_14:\n        /* \"contracts/9_mosguo_03.sol\":526:532  uint j */\n      0x00\n        /* \"contracts/9_mosguo_03.sol\":535:536  i */\n      dup3\n        /* \"contracts/9_mosguo_03.sol\":526:536  uint j = i */\n      swap1\n      pop\n        /* \"contracts/9_mosguo_03.sol\":547:555  uint len */\n      0x00\n        /* \"contracts/9_mosguo_03.sol\":566:632  while(j != 0) {\r... */\n    tag_15:\n        /* \"contracts/9_mosguo_03.sol\":577:578  0 */\n      0x00\n        /* \"contracts/9_mosguo_03.sol\":572:573  j */\n      dup3\n        /* \"contracts/9_mosguo_03.sol\":572:578  j != 0 */\n      eq\n        /* \"contracts/9_mosguo_03.sol\":566:632  while(j != 0) {\r... */\n      tag_16\n      jumpi\n        /* \"contracts/9_mosguo_03.sol\":595:600  len++ */\n      dup1\n      dup1\n      0x01\n      add\n      swap2\n      pop\n      pop\n        /* \"contracts/9_mosguo_03.sol\":618:620  10 */\n      0x0a\n        /* \"contracts/9_mosguo_03.sol\":615:620  j/=10 */\n      dup3\n      dup2\n      tag_17\n      jumpi\n      invalid\n    tag_17:\n      div\n      swap2\n      pop\n        /* \"contracts/9_mosguo_03.sol\":566:632  while(j != 0) {\r... */\n      jump(tag_15)\n    tag_16:\n        /* \"contracts/9_mosguo_03.sol\":669:686  bytes memory bstr */\n      0x60\n        /* \"contracts/9_mosguo_03.sol\":699:702  len */\n      dup2\n        /* \"contracts/9_mosguo_03.sol\":689:703  new bytes(len) */\n      0xffffffffffffffff\n      dup2\n      gt\n      dup1\n      iszero\n      tag_18\n      jumpi\n      0x00\n      dup1\n      revert\n    tag_18:\n      pop\n      mload(0x40)\n      swap1\n      dup1\n      dup3\n      mstore\n      dup1\n      0x1f\n      add\n      not(0x1f)\n      and\n      0x20\n      add\n      dup3\n      add\n      0x40\n      mstore\n      dup1\n      iszero\n      tag_19\n      jumpi\n      dup2\n      0x20\n      add\n      0x01\n      dup3\n      mul\n      dup1\n      calldatasize\n      dup4\n      calldatacopy\n      dup1\n      dup3\n      add\n      swap2\n      pop\n      pop\n      swap1\n      pop\n    tag_19:\n      pop\n        /* \"contracts/9_mosguo_03.sol\":669:703  bytes memory bstr = new bytes(len) */\n      swap1\n      pop\n        /* \"contracts/9_mosguo_03.sol\":714:720  uint k */\n      0x00\n        /* \"contracts/9_mosguo_03.sol\":727:728  1 */\n      0x01\n        /* \"contracts/9_mosguo_03.sol\":723:726  len */\n      dup4\n        /* \"contracts/9_mosguo_03.sol\":723:728  len-1 */\n      sub\n        /* \"contracts/9_mosguo_03.sol\":714:728  uint k = len-1 */\n      swap1\n      pop\n        /* \"contracts/9_mosguo_03.sol\":739:815  while (i!=0) {\r... */\n    tag_20:\n        /* \"contracts/9_mosguo_03.sol\":749:750  0 */\n      0x00\n        /* \"contracts/9_mosguo_03.sol\":746:747  i */\n      dup7\n        /* \"contracts/9_mosguo_03.sol\":746:750  i!=0 */\n      eq\n        /* \"contracts/9_mosguo_03.sol\":739:815  while (i!=0) {\r... */\n      tag_21\n      jumpi\n        /* \"contracts/9_mosguo_03.sol\":798:800  10 */\n      0x0a\n        /* \"contracts/9_mosguo_03.sol\":796:797  i */\n      dup7\n        /* \"contracts/9_mosguo_03.sol\":796:800  i%10 */\n      dup2\n      tag_22\n      jumpi\n      invalid\n    tag_22:\n      mod\n        /* \"contracts/9_mosguo_03.sol\":792:794  48 */\n      0x30\n        /* \"contracts/9_mosguo_03.sol\":792:801  48+(i%10) */\n      add\n        /* \"contracts/9_mosguo_03.sol\":779:803  bytes1(uint8(48+(i%10))) */\n      0xf8\n      shl\n        /* \"contracts/9_mosguo_03.sol\":767:771  bstr */\n      dup3\n        /* \"contracts/9_mosguo_03.sol\":772:775  k-- */\n      dup3\n      dup1\n      0x01\n      swap1\n      sub\n      swap4\n      pop\n        /* \"contracts/9_mosguo_03.sol\":767:776  bstr[k--] */\n      dup2\n      mload\n      dup2\n      lt\n      tag_23\n      jumpi\n      invalid\n    tag_23:\n      0x20\n      add\n      add\n        /* \"contracts/9_mosguo_03.sol\":767:803  bstr[k--] = bytes1(uint8(48+(i%10))) */\n      swap1\n      not(0xffffffffffffffffffffffffffffffffffffffffffffffffffffffffffffff)\n      and\n      swap1\n      dup2\n      0x00\n      byte\n      swap1\n      mstore8\n      pop\n        /* \"contracts/9_mosguo_03.sol\":739:815  while (i!=0) {\r... */\n      jump(tag_20)\n    tag_21:\n        /* \"contracts/9_mosguo_03.sol\":839:843  bstr */\n      dup2\n        /* \"contracts/9_mosguo_03.sol\":825:844  return string(bstr) */\n      swap5\n      pop\n      pop\n      pop\n      pop\n      pop\n        /* \"contracts/9_mosguo_03.sol\":409:853  function integerToString(uint i) internal pure returns(string memory) {\r... */\n    tag_13:\n      swap2\n      swap1\n      pop\n      jump\t// out\n\n    auxdata: 0xa2646970667358221220d5d0cfca412b0ebada79a6d0745392cc525e0b64da2f2814e58d21c31f454e2664736f6c63430007040033\n}\n",
				"bytecode": {
					"linkReferences": {},
					"object": "608060405234801561001057600080fd5b50610238806100206000396000f3fe608060405234801561001057600080fd5b506004361061002b5760003560e01c8063de29278914610030575b600080fd5b6100386100b3565b6040518080602001828103825283818151815260200191508051906020019080838360005b8381101561007857808201518184015260208101905061005d565b50505050905090810190601f1680156100a55780820380516001836020036101000a031916815260200191505b509250505060405180910390f35b6060600061223d90506100c5816100cb565b91505090565b60606000821415610113576040518060400160405280600181526020017f300000000000000000000000000000000000000000000000000000000000000081525090506101fd565b600082905060005b6000821461013d578080600101915050600a828161013557fe5b04915061011b565b60608167ffffffffffffffff8111801561015657600080fd5b506040519080825280601f01601f1916602001820160405280156101895781602001600182028036833780820191505090505b50905060006001830390505b600086146101f557600a86816101a757fe5b0660300160f81b828280600190039350815181106101c157fe5b60200101907effffffffffffffffffffffffffffffffffffffffffffffffffffffffffffff1916908160001a905350610195565b819450505050505b91905056fea2646970667358221220d5d0cfca412b0ebada79a6d0745392cc525e0b64da2f2814e58d21c31f454e2664736f6c63430007040033",
					"opcodes": "PUSH1 0x80 PUSH1 0x40 MSTORE CALLVALUE DUP1 ISZERO PUSH2 0x10 JUMPI PUSH1 0x0 DUP1 REVERT JUMPDEST POP PUSH2 0x238 DUP1 PUSH2 0x20 PUSH1 0x0 CODECOPY PUSH1 0x0 RETURN INVALID PUSH1 0x80 PUSH1 0x40 MSTORE CALLVALUE DUP1 ISZERO PUSH2 0x10 JUMPI PUSH1 0x0 DUP1 REVERT JUMPDEST POP PUSH1 0x4 CALLDATASIZE LT PUSH2 0x2B JUMPI PUSH1 0x0 CALLDATALOAD PUSH1 0xE0 SHR DUP1 PUSH4 0xDE292789 EQ PUSH2 0x30 JUMPI JUMPDEST PUSH1 0x0 DUP1 REVERT JUMPDEST PUSH2 0x38 PUSH2 0xB3 JUMP JUMPDEST PUSH1 0x40 MLOAD DUP1 DUP1 PUSH1 0x20 ADD DUP3 DUP2 SUB DUP3 MSTORE DUP4 DUP2 DUP2 MLOAD DUP2 MSTORE PUSH1 0x20 ADD SWAP2 POP DUP1 MLOAD SWAP1 PUSH1 0x20 ADD SWAP1 DUP1 DUP4 DUP4 PUSH1 0x0 JUMPDEST DUP4 DUP2 LT ISZERO PUSH2 0x78 JUMPI DUP1 DUP3 ADD MLOAD DUP2 DUP5 ADD MSTORE PUSH1 0x20 DUP2 ADD SWAP1 POP PUSH2 0x5D JUMP JUMPDEST POP POP POP POP SWAP1 POP SWAP1 DUP2 ADD SWAP1 PUSH1 0x1F AND DUP1 ISZERO PUSH2 0xA5 JUMPI DUP1 DUP3 SUB DUP1 MLOAD PUSH1 0x1 DUP4 PUSH1 0x20 SUB PUSH2 0x100 EXP SUB NOT AND DUP2 MSTORE PUSH1 0x20 ADD SWAP2 POP JUMPDEST POP SWAP3 POP POP POP PUSH1 0x40 MLOAD DUP1 SWAP2 SUB SWAP1 RETURN JUMPDEST PUSH1 0x60 PUSH1 0x0 PUSH2 0x223D SWAP1 POP PUSH2 0xC5 DUP2 PUSH2 0xCB JUMP JUMPDEST SWAP2 POP POP SWAP1 JUMP JUMPDEST PUSH1 0x60 PUSH1 0x0 DUP3 EQ ISZERO PUSH2 0x113 JUMPI PUSH1 0x40 MLOAD DUP1 PUSH1 0x40 ADD PUSH1 0x40 MSTORE DUP1 PUSH1 0x1 DUP2 MSTORE PUSH1 0x20 ADD PUSH32 0x3000000000000000000000000000000000000000000000000000000000000000 DUP2 MSTORE POP SWAP1 POP PUSH2 0x1FD JUMP JUMPDEST PUSH1 0x0 DUP3 SWAP1 POP PUSH1 0x0 JUMPDEST PUSH1 0x0 DUP3 EQ PUSH2 0x13D JUMPI DUP1 DUP1 PUSH1 0x1 ADD SWAP2 POP POP PUSH1 0xA DUP3 DUP2 PUSH2 0x135 JUMPI INVALID JUMPDEST DIV SWAP2 POP PUSH2 0x11B JUMP JUMPDEST PUSH1 0x60 DUP2 PUSH8 0xFFFFFFFFFFFFFFFF DUP2 GT DUP1 ISZERO PUSH2 0x156 JUMPI PUSH1 0x0 DUP1 REVERT JUMPDEST POP PUSH1 0x40 MLOAD SWAP1 DUP1 DUP3 MSTORE DUP1 PUSH1 0x1F ADD PUSH1 0x1F NOT AND PUSH1 0x20 ADD DUP3 ADD PUSH1 0x40 MSTORE DUP1 ISZERO PUSH2 0x189 JUMPI DUP2 PUSH1 0x20 ADD PUSH1 0x1 DUP3 MUL DUP1 CALLDATASIZE DUP4 CALLDATACOPY DUP1 DUP3 ADD SWAP2 POP POP SWAP1 POP JUMPDEST POP SWAP1 POP PUSH1 0x0 PUSH1 0x1 DUP4 SUB SWAP1 POP JUMPDEST PUSH1 0x0 DUP7 EQ PUSH2 0x1F5 JUMPI PUSH1 0xA DUP7 DUP2 PUSH2 0x1A7 JUMPI INVALID JUMPDEST MOD PUSH1 0x30 ADD PUSH1 0xF8 SHL DUP3 DUP3 DUP1 PUSH1 0x1 SWAP1 SUB SWAP4 POP DUP2 MLOAD DUP2 LT PUSH2 0x1C1 JUMPI INVALID JUMPDEST PUSH1 0x20 ADD ADD SWAP1 PUSH31 0xFFFFFFFFFFFFFFFFFFFFFFFFFFFFFFFFFFFFFFFFFFFFFFFFFFFFFFFFFFFFFF NOT AND SWAP1 DUP2 PUSH1 0x0 BYTE SWAP1 MSTORE8 POP PUSH2 0x195 JUMP JUMPDEST DUP2 SWAP5 POP POP POP POP POP JUMPDEST SWAP2 SWAP1 POP JUMP INVALID LOG2 PUSH5 0x6970667358 0x22 SLT KECCAK256 0xD5 0xD0 0xCF 0xCA COINBASE 0x2B 0xE 0xBA 0xDA PUSH26 0xA6D0745392CC525E0B64DA2F2814E58D21C31F454E2664736F6C PUSH4 0x43000704 STOP CALLER "
				},
				"gasEstimates": {
					"creation": {
						"codeDepositCost": "113600",
						"executionCost": "159",
						"totalCost": "113759"
					},
					"external": {
						"getResult()": "infinite"
					},
					"internal": {
						"integerToString(uint256)": "infinite"
					}
				},
				"methodIdentifiers": {
					"getResult()": "de292789"
				}
			},
			"storageLayout": {
				"storage": [],
				"types": null
			},
			"userdoc": {
				"kind": "user",
				"methods": {},
				"version": 1
			}
		}
	}
}