{
	"contracts/Demo5.sol": {
		"Demo5": {
			"abi": [
				{
					"inputs": [],
					"name": "getCourse",
					"outputs": [
						{
							"components": [
								{
									"internalType": "string",
									"name": "id",
									"type": "string"
								},
								{
									"internalType": "string",
									"name": "name",
									"type": "string"
								},
								{
									"internalType": "uint256",
									"name": "duration",
									"type": "uint256"
								}
							],
							"internalType": "struct Demo5.Course",
							"name": "",
							"type": "tuple"
						}
					],
					"stateMutability": "view",
					"type": "function"
				},
				{
					"inputs": [],
					"name": "getCourseId",
					"outputs": [
						{
							"internalType": "string",
							"name": "",
							"type": "string"
						}
					],
					"stateMutability": "view",
					"type": "function"
				},
				{
					"inputs": [],
					"name": "setCourse",
					"outputs": [],
					"stateMutability": "nonpayable",
					"type": "function"
				}
			],
			"devdoc": {
				"kind": "dev",
				"methods": {},
				"version": 1
			},
			"evm": {
				"assembly": "    /* \"contracts/Demo5.sol\":97:470  contract Demo5 {\r... */\n  mstore(0x40, 0x80)\n  callvalue\n  dup1\n  iszero\n  tag_1\n  jumpi\n  0x00\n  dup1\n  revert\ntag_1:\n  pop\n  dataSize(sub_0)\n  dup1\n  dataOffset(sub_0)\n  0x00\n  codecopy\n  0x00\n  return\nstop\n\nsub_0: assembly {\n        /* \"contracts/Demo5.sol\":97:470  contract Demo5 {\r... */\n      mstore(0x40, 0x80)\n      callvalue\n      dup1\n      iszero\n      tag_1\n      jumpi\n      0x00\n      dup1\n      revert\n    tag_1:\n      pop\n      jumpi(tag_2, lt(calldatasize, 0x04))\n      shr(0xe0, calldataload(0x00))\n      dup1\n      0x49269b6f\n      eq\n      tag_3\n      jumpi\n      dup1\n      0x50808e8b\n      eq\n      tag_4\n      jumpi\n      dup1\n      0x8c14acd5\n      eq\n      tag_5\n      jumpi\n    tag_2:\n      0x00\n      dup1\n      revert\n        /* \"contracts/Demo5.sol\":207:290  function setCourse() public {\r... */\n    tag_3:\n      tag_6\n      tag_7\n      jump\t// in\n    tag_6:\n      stop\n        /* \"contracts/Demo5.sol\":292:381  function getCourseId() public view returns (string memory) {\r... */\n    tag_4:\n      tag_8\n      tag_9\n      jump\t// in\n    tag_8:\n      mload(0x40)\n      tag_10\n      swap2\n      swap1\n      tag_11\n      jump\t// in\n    tag_10:\n      mload(0x40)\n      dup1\n      swap2\n      sub\n      swap1\n      return\n        /* \"contracts/Demo5.sol\":383:467  function getCourse() public view returns (Course memory) {\r... */\n    tag_5:\n      tag_12\n      tag_13\n      jump\t// in\n    tag_12:\n      mload(0x40)\n      tag_14\n      swap2\n      swap1\n      tag_15\n      jump\t// in\n    tag_14:\n      mload(0x40)\n      dup1\n      swap2\n      sub\n      swap1\n      return\n        /* \"contracts/Demo5.sol\":207:290  function setCourse() public {\r... */\n    tag_7:\n        /* \"contracts/Demo5.sol\":254:286  Course(\"POOP\", \"Python OOP\", 35) */\n      mload(0x40)\n      dup1\n      0x60\n      add\n      0x40\n      mstore\n      dup1\n      mload(0x40)\n      dup1\n      0x40\n      add\n      0x40\n      mstore\n      dup1\n      0x04\n      dup2\n      mstore\n      0x20\n      add\n      0x504f4f5000000000000000000000000000000000000000000000000000000000\n      dup2\n      mstore\n      pop\n      dup2\n      mstore\n      0x20\n      add\n      mload(0x40)\n      dup1\n      0x40\n      add\n      0x40\n      mstore\n      dup1\n      0x0a\n      dup2\n      mstore\n      0x20\n      add\n      0x507974686f6e204f4f5000000000000000000000000000000000000000000000\n      dup2\n      mstore\n      pop\n      dup2\n      mstore\n      0x20\n      add\n        /* \"contracts/Demo5.sol\":283:285  35 */\n      0x23\n        /* \"contracts/Demo5.sol\":254:286  Course(\"POOP\", \"Python OOP\", 35) */\n      dup2\n      mstore\n      pop\n        /* \"contracts/Demo5.sol\":238:251  currentCourse */\n      0x00\n        /* \"contracts/Demo5.sol\":238:286  currentCourse = Course(\"POOP\", \"Python OOP\", 35) */\n      dup1\n      dup3\n      add\n      mload\n      dup2\n      0x00\n      add\n      swap1\n      dup1\n      mload\n      swap1\n      0x20\n      add\n      swap1\n      tag_17\n      swap3\n      swap2\n      swap1\n      tag_18\n      jump\t// in\n    tag_17:\n      pop\n      0x20\n      dup3\n      add\n      mload\n      dup2\n      0x01\n      add\n      swap1\n      dup1\n      mload\n      swap1\n      0x20\n      add\n      swap1\n      tag_19\n      swap3\n      swap2\n      swap1\n      tag_18\n      jump\t// in\n    tag_19:\n      pop\n      0x40\n      dup3\n      add\n      mload\n      dup2\n      0x02\n      add\n      sstore\n      swap1\n      pop\n      pop\n        /* \"contracts/Demo5.sol\":207:290  function setCourse() public {\r... */\n      jump\t// out\n        /* \"contracts/Demo5.sol\":292:381  function getCourseId() public view returns (string memory) {\r... */\n    tag_9:\n        /* \"contracts/Demo5.sol\":336:349  string memory */\n      0x60\n        /* \"contracts/Demo5.sol\":361:374  currentCourse */\n      0x00\n        /* \"contracts/Demo5.sol\":361:377  currentCourse.id */\n      dup1\n      add\n        /* \"contracts/Demo5.sol\":354:377  return currentCourse.id */\n      dup1\n      sload\n      0x01\n      dup2\n      0x01\n      and\n      iszero\n      0x0100\n      mul\n      sub\n      and\n      0x02\n      swap1\n      div\n      dup1\n      0x1f\n      add\n      0x20\n      dup1\n      swap2\n      div\n      mul\n      0x20\n      add\n      mload(0x40)\n      swap1\n      dup2\n      add\n      0x40\n      mstore\n      dup1\n      swap3\n      swap2\n      swap1\n      dup2\n      dup2\n      mstore\n      0x20\n      add\n      dup3\n      dup1\n      sload\n      0x01\n      dup2\n      0x01\n      and\n      iszero\n      0x0100\n      mul\n      sub\n      and\n      0x02\n      swap1\n      div\n      dup1\n      iszero\n      tag_21\n      jumpi\n      dup1\n      0x1f\n      lt\n      tag_22\n      jumpi\n      0x0100\n      dup1\n      dup4\n      sload\n      div\n      mul\n      dup4\n      mstore\n      swap2\n      0x20\n      add\n      swap2\n      jump(tag_21)\n    tag_22:\n      dup3\n      add\n      swap2\n      swap1\n      0x00\n      mstore\n      keccak256(0x00, 0x20)\n      swap1\n    tag_23:\n      dup2\n      sload\n      dup2\n      mstore\n      swap1\n      0x01\n      add\n      swap1\n      0x20\n      add\n      dup1\n      dup4\n      gt\n      tag_23\n      jumpi\n      dup3\n      swap1\n      sub\n      0x1f\n      and\n      dup3\n      add\n      swap2\n    tag_21:\n      pop\n      pop\n      pop\n      pop\n      pop\n      swap1\n      pop\n        /* \"contracts/Demo5.sol\":292:381  function getCourseId() public view returns (string memory) {\r... */\n      swap1\n      jump\t// out\n        /* \"contracts/Demo5.sol\":383:467  function getCourse() public view returns (Course memory) {\r... */\n    tag_13:\n        /* \"contracts/Demo5.sol\":425:438  Course memory */\n      tag_24\n      tag_25\n      jump\t// in\n    tag_24:\n        /* \"contracts/Demo5.sol\":450:463  currentCourse */\n      0x00\n        /* \"contracts/Demo5.sol\":443:463  return currentCourse */\n      mload(0x40)\n      dup1\n      0x60\n      add\n      0x40\n      mstore\n      swap1\n      dup2\n      0x00\n      dup3\n      add\n      dup1\n      sload\n      0x01\n      dup2\n      0x01\n      and\n      iszero\n      0x0100\n      mul\n      sub\n      and\n      0x02\n      swap1\n      div\n      dup1\n      0x1f\n      add\n      0x20\n      dup1\n      swap2\n      div\n      mul\n      0x20\n      add\n      mload(0x40)\n      swap1\n      dup2\n      add\n      0x40\n      mstore\n      dup1\n      swap3\n      swap2\n      swap1\n      dup2\n      dup2\n      mstore\n      0x20\n      add\n      dup3\n      dup1\n      sload\n      0x01\n      dup2\n      0x01\n      and\n      iszero\n      0x0100\n      mul\n      sub\n      and\n      0x02\n      swap1\n      div\n      dup1\n      iszero\n      tag_27\n      jumpi\n      dup1\n      0x1f\n      lt\n      tag_28\n      jumpi\n      0x0100\n      dup1\n      dup4\n      sload\n      div\n      mul\n      dup4\n      mstore\n      swap2\n      0x20\n      add\n      swap2\n      jump(tag_27)\n    tag_28:\n      dup3\n      add\n      swap2\n      swap1\n      0x00\n      mstore\n      keccak256(0x00, 0x20)\n      swap1\n    tag_29:\n      dup2\n      sload\n      dup2\n      mstore\n      swap1\n      0x01\n      add\n      swap1\n      0x20\n      add\n      dup1\n      dup4\n      gt\n      tag_29\n      jumpi\n      dup3\n      swap1\n      sub\n      0x1f\n      and\n      dup3\n      add\n      swap2\n    tag_27:\n      pop\n      pop\n      pop\n      pop\n      pop\n      dup2\n      mstore\n      0x20\n      add\n      0x01\n      dup3\n      add\n      dup1\n      sload\n      0x01\n      dup2\n      0x01\n      and\n      iszero\n      0x0100\n      mul\n      sub\n      and\n      0x02\n      swap1\n      div\n      dup1\n      0x1f\n      add\n      0x20\n      dup1\n      swap2\n      div\n      mul\n      0x20\n      add\n      mload(0x40)\n      swap1\n      dup2\n      add\n      0x40\n      mstore\n      dup1\n      swap3\n      swap2\n      swap1\n      dup2\n      dup2\n      mstore\n      0x20\n      add\n      dup3\n      dup1\n      sload\n      0x01\n      dup2\n      0x01\n      and\n      iszero\n      0x0100\n      mul\n      sub\n      and\n      0x02\n      swap1\n      div\n      dup1\n      iszero\n      tag_30\n      jumpi\n      dup1\n      0x1f\n      lt\n      tag_31\n      jumpi\n      0x0100\n      dup1\n      dup4\n      sload\n      div\n      mul\n      dup4\n      mstore\n      swap2\n      0x20\n      add\n      swap2\n      jump(tag_30)\n    tag_31:\n      dup3\n      add\n      swap2\n      swap1\n      0x00\n      mstore\n      keccak256(0x00, 0x20)\n      swap1\n    tag_32:\n      dup2\n      sload\n      dup2\n      mstore\n      swap1\n      0x01\n      add\n      swap1\n      0x20\n      add\n      dup1\n      dup4\n      gt\n      tag_32\n      jumpi\n      dup3\n      swap1\n      sub\n      0x1f\n      and\n      dup3\n      add\n      swap2\n    tag_30:\n      pop\n      pop\n      pop\n      pop\n      pop\n      dup2\n      mstore\n      0x20\n      add\n      0x02\n      dup3\n      add\n      sload\n      dup2\n      mstore\n      pop\n      pop\n      swap1\n      pop\n        /* \"contracts/Demo5.sol\":383:467  function getCourse() public view returns (Course memory) {\r... */\n      swap1\n      jump\t// out\n    tag_18:\n      dup3\n      dup1\n      sload\n      0x01\n      dup2\n      0x01\n      and\n      iszero\n      0x0100\n      mul\n      sub\n      and\n      0x02\n      swap1\n      div\n      swap1\n      0x00\n      mstore\n      keccak256(0x00, 0x20)\n      swap1\n      0x1f\n      add\n      0x20\n      swap1\n      div\n      dup2\n      add\n      swap3\n      dup3\n      tag_34\n      jumpi\n      0x00\n      dup6\n      sstore\n      jump(tag_33)\n    tag_34:\n      dup3\n      0x1f\n      lt\n      tag_35\n      jumpi\n      dup1\n      mload\n      not(0xff)\n      and\n      dup4\n      dup1\n      add\n      or\n      dup6\n      sstore\n      jump(tag_33)\n    tag_35:\n      dup3\n      dup1\n      add\n      0x01\n      add\n      dup6\n      sstore\n      dup3\n      iszero\n      tag_33\n      jumpi\n      swap2\n      dup3\n      add\n    tag_36:\n      dup3\n      dup2\n      gt\n      iszero\n      tag_37\n      jumpi\n      dup3\n      mload\n      dup3\n      sstore\n      swap2\n      0x20\n      add\n      swap2\n      swap1\n      0x01\n      add\n      swap1\n      jump(tag_36)\n    tag_37:\n    tag_33:\n      pop\n      swap1\n      pop\n      tag_38\n      swap2\n      swap1\n      tag_39\n      jump\t// in\n    tag_38:\n      pop\n      swap1\n      jump\t// out\n    tag_25:\n      mload(0x40)\n      dup1\n      0x60\n      add\n      0x40\n      mstore\n      dup1\n      0x60\n      dup2\n      mstore\n      0x20\n      add\n      0x60\n      dup2\n      mstore\n      0x20\n      add\n      0x00\n      dup2\n      mstore\n      pop\n      swap1\n      jump\t// out\n    tag_39:\n    tag_40:\n      dup1\n      dup3\n      gt\n      iszero\n      tag_41\n      jumpi\n      0x00\n      dup2\n      0x00\n      swap1\n      sstore\n      pop\n      0x01\n      add\n      jump(tag_40)\n    tag_41:\n      pop\n      swap1\n      jump\t// out\n        /* \"#utility.yul\":7:351   */\n    tag_43:\n      0x00\n        /* \"#utility.yul\":113:152   */\n      tag_45\n        /* \"#utility.yul\":146:151   */\n      dup3\n        /* \"#utility.yul\":113:152   */\n      tag_46\n      jump\t// in\n    tag_45:\n        /* \"#utility.yul\":168:229   */\n      tag_47\n        /* \"#utility.yul\":222:228   */\n      dup2\n        /* \"#utility.yul\":217:220   */\n      dup6\n        /* \"#utility.yul\":168:229   */\n      tag_48\n      jump\t// in\n    tag_47:\n        /* \"#utility.yul\":161:229   */\n      swap4\n      pop\n        /* \"#utility.yul\":238:290   */\n      tag_49\n        /* \"#utility.yul\":283:289   */\n      dup2\n        /* \"#utility.yul\":278:281   */\n      dup6\n        /* \"#utility.yul\":271:275   */\n      0x20\n        /* \"#utility.yul\":264:269   */\n      dup7\n        /* \"#utility.yul\":260:276   */\n      add\n        /* \"#utility.yul\":238:290   */\n      tag_50\n      jump\t// in\n    tag_49:\n        /* \"#utility.yul\":315:344   */\n      tag_51\n        /* \"#utility.yul\":337:343   */\n      dup2\n        /* \"#utility.yul\":315:344   */\n      tag_52\n      jump\t// in\n    tag_51:\n        /* \"#utility.yul\":310:313   */\n      dup5\n        /* \"#utility.yul\":306:345   */\n      add\n        /* \"#utility.yul\":299:345   */\n      swap2\n      pop\n        /* \"#utility.yul\":89:351   */\n      pop\n      swap3\n      swap2\n      pop\n      pop\n      jump\t// out\n        /* \"#utility.yul\":357:721   */\n    tag_53:\n      0x00\n        /* \"#utility.yul\":473:512   */\n      tag_55\n        /* \"#utility.yul\":506:511   */\n      dup3\n        /* \"#utility.yul\":473:512   */\n      tag_46\n      jump\t// in\n    tag_55:\n        /* \"#utility.yul\":528:599   */\n      tag_56\n        /* \"#utility.yul\":592:598   */\n      dup2\n        /* \"#utility.yul\":587:590   */\n      dup6\n        /* \"#utility.yul\":528:599   */\n      tag_57\n      jump\t// in\n    tag_56:\n        /* \"#utility.yul\":521:599   */\n      swap4\n      pop\n        /* \"#utility.yul\":608:660   */\n      tag_58\n        /* \"#utility.yul\":653:659   */\n      dup2\n        /* \"#utility.yul\":648:651   */\n      dup6\n        /* \"#utility.yul\":641:645   */\n      0x20\n        /* \"#utility.yul\":634:639   */\n      dup7\n        /* \"#utility.yul\":630:646   */\n      add\n        /* \"#utility.yul\":608:660   */\n      tag_50\n      jump\t// in\n    tag_58:\n        /* \"#utility.yul\":685:714   */\n      tag_59\n        /* \"#utility.yul\":707:713   */\n      dup2\n        /* \"#utility.yul\":685:714   */\n      tag_52\n      jump\t// in\n    tag_59:\n        /* \"#utility.yul\":680:683   */\n      dup5\n        /* \"#utility.yul\":676:715   */\n      add\n        /* \"#utility.yul\":669:715   */\n      swap2\n      pop\n        /* \"#utility.yul\":449:721   */\n      pop\n      swap3\n      swap2\n      pop\n      pop\n      jump\t// out\n        /* \"#utility.yul\":777:1622   */\n    tag_60:\n      0x00\n        /* \"#utility.yul\":924:928   */\n      0x60\n        /* \"#utility.yul\":919:922   */\n      dup4\n        /* \"#utility.yul\":915:929   */\n      add\n        /* \"#utility.yul\":1009:1013   */\n      0x00\n        /* \"#utility.yul\":1002:1007   */\n      dup4\n        /* \"#utility.yul\":998:1014   */\n      add\n        /* \"#utility.yul\":992:1015   */\n      mload\n        /* \"#utility.yul\":1062:1065   */\n      dup5\n        /* \"#utility.yul\":1056:1060   */\n      dup3\n        /* \"#utility.yul\":1052:1066   */\n      sub\n        /* \"#utility.yul\":1045:1049   */\n      0x00\n        /* \"#utility.yul\":1040:1043   */\n      dup7\n        /* \"#utility.yul\":1036:1050   */\n      add\n        /* \"#utility.yul\":1029:1067   */\n      mstore\n        /* \"#utility.yul\":1088:1161   */\n      tag_62\n        /* \"#utility.yul\":1156:1160   */\n      dup3\n        /* \"#utility.yul\":1142:1154   */\n      dup3\n        /* \"#utility.yul\":1088:1161   */\n      tag_43\n      jump\t// in\n    tag_62:\n        /* \"#utility.yul\":1080:1161   */\n      swap2\n      pop\n        /* \"#utility.yul\":939:1172   */\n      pop\n        /* \"#utility.yul\":1254:1258   */\n      0x20\n        /* \"#utility.yul\":1247:1252   */\n      dup4\n        /* \"#utility.yul\":1243:1259   */\n      add\n        /* \"#utility.yul\":1237:1260   */\n      mload\n        /* \"#utility.yul\":1307:1310   */\n      dup5\n        /* \"#utility.yul\":1301:1305   */\n      dup3\n        /* \"#utility.yul\":1297:1311   */\n      sub\n        /* \"#utility.yul\":1290:1294   */\n      0x20\n        /* \"#utility.yul\":1285:1288   */\n      dup7\n        /* \"#utility.yul\":1281:1295   */\n      add\n        /* \"#utility.yul\":1274:1312   */\n      mstore\n        /* \"#utility.yul\":1333:1406   */\n      tag_63\n        /* \"#utility.yul\":1401:1405   */\n      dup3\n        /* \"#utility.yul\":1387:1399   */\n      dup3\n        /* \"#utility.yul\":1333:1406   */\n      tag_43\n      jump\t// in\n    tag_63:\n        /* \"#utility.yul\":1325:1406   */\n      swap2\n      pop\n        /* \"#utility.yul\":1182:1417   */\n      pop\n        /* \"#utility.yul\":1503:1507   */\n      0x40\n        /* \"#utility.yul\":1496:1501   */\n      dup4\n        /* \"#utility.yul\":1492:1508   */\n      add\n        /* \"#utility.yul\":1486:1509   */\n      mload\n        /* \"#utility.yul\":1522:1585   */\n      tag_64\n        /* \"#utility.yul\":1579:1583   */\n      0x40\n        /* \"#utility.yul\":1574:1577   */\n      dup7\n        /* \"#utility.yul\":1570:1584   */\n      add\n        /* \"#utility.yul\":1556:1568   */\n      dup3\n        /* \"#utility.yul\":1522:1585   */\n      tag_65\n      jump\t// in\n    tag_64:\n        /* \"#utility.yul\":1427:1595   */\n      pop\n        /* \"#utility.yul\":1612:1616   */\n      dup1\n        /* \"#utility.yul\":1605:1616   */\n      swap2\n      pop\n        /* \"#utility.yul\":893:1622   */\n      pop\n      swap3\n      swap2\n      pop\n      pop\n      jump\t// out\n        /* \"#utility.yul\":1628:1736   */\n    tag_65:\n        /* \"#utility.yul\":1705:1729   */\n      tag_67\n        /* \"#utility.yul\":1723:1728   */\n      dup2\n        /* \"#utility.yul\":1705:1729   */\n      tag_68\n      jump\t// in\n    tag_67:\n        /* \"#utility.yul\":1700:1703   */\n      dup3\n        /* \"#utility.yul\":1693:1730   */\n      mstore\n        /* \"#utility.yul\":1683:1736   */\n      pop\n      pop\n      jump\t// out\n        /* \"#utility.yul\":1742:2055   */\n    tag_11:\n      0x00\n        /* \"#utility.yul\":1893:1895   */\n      0x20\n        /* \"#utility.yul\":1882:1891   */\n      dup3\n        /* \"#utility.yul\":1878:1896   */\n      add\n        /* \"#utility.yul\":1870:1896   */\n      swap1\n      pop\n        /* \"#utility.yul\":1942:1951   */\n      dup2\n        /* \"#utility.yul\":1936:1940   */\n      dup2\n        /* \"#utility.yul\":1932:1952   */\n      sub\n        /* \"#utility.yul\":1928:1929   */\n      0x00\n        /* \"#utility.yul\":1917:1926   */\n      dup4\n        /* \"#utility.yul\":1913:1930   */\n      add\n        /* \"#utility.yul\":1906:1953   */\n      mstore\n        /* \"#utility.yul\":1970:2048   */\n      tag_70\n        /* \"#utility.yul\":2043:2047   */\n      dup2\n        /* \"#utility.yul\":2034:2040   */\n      dup5\n        /* \"#utility.yul\":1970:2048   */\n      tag_53\n      jump\t// in\n    tag_70:\n        /* \"#utility.yul\":1962:2048   */\n      swap1\n      pop\n        /* \"#utility.yul\":1860:2055   */\n      swap3\n      swap2\n      pop\n      pop\n      jump\t// out\n        /* \"#utility.yul\":2061:2418   */\n    tag_15:\n      0x00\n        /* \"#utility.yul\":2234:2236   */\n      0x20\n        /* \"#utility.yul\":2223:2232   */\n      dup3\n        /* \"#utility.yul\":2219:2237   */\n      add\n        /* \"#utility.yul\":2211:2237   */\n      swap1\n      pop\n        /* \"#utility.yul\":2283:2292   */\n      dup2\n        /* \"#utility.yul\":2277:2281   */\n      dup2\n        /* \"#utility.yul\":2273:2293   */\n      sub\n        /* \"#utility.yul\":2269:2270   */\n      0x00\n        /* \"#utility.yul\":2258:2267   */\n      dup4\n        /* \"#utility.yul\":2254:2271   */\n      add\n        /* \"#utility.yul\":2247:2294   */\n      mstore\n        /* \"#utility.yul\":2311:2411   */\n      tag_72\n        /* \"#utility.yul\":2406:2410   */\n      dup2\n        /* \"#utility.yul\":2397:2403   */\n      dup5\n        /* \"#utility.yul\":2311:2411   */\n      tag_60\n      jump\t// in\n    tag_72:\n        /* \"#utility.yul\":2303:2411   */\n      swap1\n      pop\n        /* \"#utility.yul\":2201:2418   */\n      swap3\n      swap2\n      pop\n      pop\n      jump\t// out\n        /* \"#utility.yul\":2424:2523   */\n    tag_46:\n      0x00\n        /* \"#utility.yul\":2510:2515   */\n      dup2\n        /* \"#utility.yul\":2504:2516   */\n      mload\n        /* \"#utility.yul\":2494:2516   */\n      swap1\n      pop\n        /* \"#utility.yul\":2483:2523   */\n      swap2\n      swap1\n      pop\n      jump\t// out\n        /* \"#utility.yul\":2529:2688   */\n    tag_48:\n      0x00\n        /* \"#utility.yul\":2637:2643   */\n      dup3\n        /* \"#utility.yul\":2632:2635   */\n      dup3\n        /* \"#utility.yul\":2625:2644   */\n      mstore\n        /* \"#utility.yul\":2677:2681   */\n      0x20\n        /* \"#utility.yul\":2672:2675   */\n      dup3\n        /* \"#utility.yul\":2668:2682   */\n      add\n        /* \"#utility.yul\":2653:2682   */\n      swap1\n      pop\n        /* \"#utility.yul\":2615:2688   */\n      swap3\n      swap2\n      pop\n      pop\n      jump\t// out\n        /* \"#utility.yul\":2694:2863   */\n    tag_57:\n      0x00\n        /* \"#utility.yul\":2812:2818   */\n      dup3\n        /* \"#utility.yul\":2807:2810   */\n      dup3\n        /* \"#utility.yul\":2800:2819   */\n      mstore\n        /* \"#utility.yul\":2852:2856   */\n      0x20\n        /* \"#utility.yul\":2847:2850   */\n      dup3\n        /* \"#utility.yul\":2843:2857   */\n      add\n        /* \"#utility.yul\":2828:2857   */\n      swap1\n      pop\n        /* \"#utility.yul\":2790:2863   */\n      swap3\n      swap2\n      pop\n      pop\n      jump\t// out\n        /* \"#utility.yul\":2869:2946   */\n    tag_68:\n      0x00\n        /* \"#utility.yul\":2935:2940   */\n      dup2\n        /* \"#utility.yul\":2924:2940   */\n      swap1\n      pop\n        /* \"#utility.yul\":2914:2946   */\n      swap2\n      swap1\n      pop\n      jump\t// out\n        /* \"#utility.yul\":2952:3259   */\n    tag_50:\n        /* \"#utility.yul\":3020:3021   */\n      0x00\n        /* \"#utility.yul\":3030:3143   */\n    tag_78:\n        /* \"#utility.yul\":3044:3050   */\n      dup4\n        /* \"#utility.yul\":3041:3042   */\n      dup2\n        /* \"#utility.yul\":3038:3051   */\n      lt\n        /* \"#utility.yul\":3030:3143   */\n      iszero\n      tag_80\n      jumpi\n        /* \"#utility.yul\":3129:3130   */\n      dup1\n        /* \"#utility.yul\":3124:3127   */\n      dup3\n        /* \"#utility.yul\":3120:3131   */\n      add\n        /* \"#utility.yul\":3114:3132   */\n      mload\n        /* \"#utility.yul\":3110:3111   */\n      dup2\n        /* \"#utility.yul\":3105:3108   */\n      dup5\n        /* \"#utility.yul\":3101:3112   */\n      add\n        /* \"#utility.yul\":3094:3133   */\n      mstore\n        /* \"#utility.yul\":3066:3068   */\n      0x20\n        /* \"#utility.yul\":3063:3064   */\n      dup2\n        /* \"#utility.yul\":3059:3069   */\n      add\n        /* \"#utility.yul\":3054:3069   */\n      swap1\n      pop\n        /* \"#utility.yul\":3030:3143   */\n      jump(tag_78)\n    tag_80:\n        /* \"#utility.yul\":3161:3167   */\n      dup4\n        /* \"#utility.yul\":3158:3159   */\n      dup2\n        /* \"#utility.yul\":3155:3168   */\n      gt\n        /* \"#utility.yul\":3152:3154   */\n      iszero\n      tag_81\n      jumpi\n        /* \"#utility.yul\":3241:3242   */\n      0x00\n        /* \"#utility.yul\":3232:3238   */\n      dup5\n        /* \"#utility.yul\":3227:3230   */\n      dup5\n        /* \"#utility.yul\":3223:3239   */\n      add\n        /* \"#utility.yul\":3216:3243   */\n      mstore\n        /* \"#utility.yul\":3152:3154   */\n    tag_81:\n        /* \"#utility.yul\":3001:3259   */\n      pop\n      pop\n      pop\n      pop\n      jump\t// out\n        /* \"#utility.yul\":3265:3367   */\n    tag_52:\n      0x00\n        /* \"#utility.yul\":3357:3359   */\n      0x1f\n        /* \"#utility.yul\":3353:3360   */\n      not\n        /* \"#utility.yul\":3348:3350   */\n      0x1f\n        /* \"#utility.yul\":3341:3346   */\n      dup4\n        /* \"#utility.yul\":3337:3351   */\n      add\n        /* \"#utility.yul\":3333:3361   */\n      and\n        /* \"#utility.yul\":3323:3361   */\n      swap1\n      pop\n        /* \"#utility.yul\":3313:3367   */\n      swap2\n      swap1\n      pop\n      jump\t// out\n\n    auxdata: 0xa26469706673582212206f93915d9db1f4522ad4db4402840596e7545810fec3265fe73ba1fe59a4e84764736f6c63430007040033\n}\n",
				"bytecode": {
					"linkReferences": {},
					"object": "608060405234801561001057600080fd5b50610601806100206000396000f3fe608060405234801561001057600080fd5b50600436106100415760003560e01c806349269b6f1461004657806350808e8b146100505780638c14acd51461006e575b600080fd5b61004e61008c565b005b61005861015c565b604051610065919061050c565b60405180910390f35b610076610200565b604051610083919061052e565b60405180910390f35b60405180606001604052806040518060400160405280600481526020017f504f4f500000000000000000000000000000000000000000000000000000000081525081526020016040518060400160405280600a81526020017f507974686f6e204f4f50000000000000000000000000000000000000000000008152508152602001602381525060008082015181600001908051906020019061012f929190610368565b50602082015181600101908051906020019061014c929190610368565b5060408201518160020155905050565b6060600080018054600181600116156101000203166002900480601f0160208091040260200160405190810160405280929190818152602001828054600181600116156101000203166002900480156101f65780601f106101cb576101008083540402835291602001916101f6565b820191906000526020600020905b8154815290600101906020018083116101d957829003601f168201915b5050505050905090565b6102086103f6565b6000604051806060016040529081600082018054600181600116156101000203166002900480601f0160208091040260200160405190810160405280929190818152602001828054600181600116156101000203166002900480156102ae5780601f10610283576101008083540402835291602001916102ae565b820191906000526020600020905b81548152906001019060200180831161029157829003601f168201915b50505050508152602001600182018054600181600116156101000203166002900480601f0160208091040260200160405190810160405280929190818152602001828054600181600116156101000203166002900480156103505780601f1061032557610100808354040283529160200191610350565b820191906000526020600020905b81548152906001019060200180831161033357829003601f168201915b50505050508152602001600282015481525050905090565b828054600181600116156101000203166002900490600052602060002090601f01602090048101928261039e57600085556103e5565b82601f106103b757805160ff19168380011785556103e5565b828001600101855582156103e5579182015b828111156103e45782518255916020019190600101906103c9565b5b5090506103f29190610417565b5090565b60405180606001604052806060815260200160608152602001600081525090565b5b80821115610430576000816000905550600101610418565b5090565b600061043f82610550565b610449818561055b565b9350610459818560208601610587565b610462816105ba565b840191505092915050565b600061047882610550565b610482818561056c565b9350610492818560208601610587565b61049b816105ba565b840191505092915050565b600060608301600083015184820360008601526104c38282610434565b915050602083015184820360208601526104dd8282610434565b91505060408301516104f260408601826104fd565b508091505092915050565b6105068161057d565b82525050565b60006020820190508181036000830152610526818461046d565b905092915050565b6000602082019050818103600083015261054881846104a6565b905092915050565b600081519050919050565b600082825260208201905092915050565b600082825260208201905092915050565b6000819050919050565b60005b838110156105a557808201518184015260208101905061058a565b838111156105b4576000848401525b50505050565b6000601f19601f830116905091905056fea26469706673582212206f93915d9db1f4522ad4db4402840596e7545810fec3265fe73ba1fe59a4e84764736f6c63430007040033",
					"opcodes": "PUSH1 0x80 PUSH1 0x40 MSTORE CALLVALUE DUP1 ISZERO PUSH2 0x10 JUMPI PUSH1 0x0 DUP1 REVERT JUMPDEST POP PUSH2 0x601 DUP1 PUSH2 0x20 PUSH1 0x0 CODECOPY PUSH1 0x0 RETURN INVALID PUSH1 0x80 PUSH1 0x40 MSTORE CALLVALUE DUP1 ISZERO PUSH2 0x10 JUMPI PUSH1 0x0 DUP1 REVERT JUMPDEST POP PUSH1 0x4 CALLDATASIZE LT PUSH2 0x41 JUMPI PUSH1 0x0 CALLDATALOAD PUSH1 0xE0 SHR DUP1 PUSH4 0x49269B6F EQ PUSH2 0x46 JUMPI DUP1 PUSH4 0x50808E8B EQ PUSH2 0x50 JUMPI DUP1 PUSH4 0x8C14ACD5 EQ PUSH2 0x6E JUMPI JUMPDEST PUSH1 0x0 DUP1 REVERT JUMPDEST PUSH2 0x4E PUSH2 0x8C JUMP JUMPDEST STOP JUMPDEST PUSH2 0x58 PUSH2 0x15C JUMP JUMPDEST PUSH1 0x40 MLOAD PUSH2 0x65 SWAP2 SWAP1 PUSH2 0x50C JUMP JUMPDEST PUSH1 0x40 MLOAD DUP1 SWAP2 SUB SWAP1 RETURN JUMPDEST PUSH2 0x76 PUSH2 0x200 JUMP JUMPDEST PUSH1 0x40 MLOAD PUSH2 0x83 SWAP2 SWAP1 PUSH2 0x52E JUMP JUMPDEST PUSH1 0x40 MLOAD DUP1 SWAP2 SUB SWAP1 RETURN JUMPDEST PUSH1 0x40 MLOAD DUP1 PUSH1 0x60 ADD PUSH1 0x40 MSTORE DUP1 PUSH1 0x40 MLOAD DUP1 PUSH1 0x40 ADD PUSH1 0x40 MSTORE DUP1 PUSH1 0x4 DUP2 MSTORE PUSH1 0x20 ADD PUSH32 0x504F4F5000000000000000000000000000000000000000000000000000000000 DUP2 MSTORE POP DUP2 MSTORE PUSH1 0x20 ADD PUSH1 0x40 MLOAD DUP1 PUSH1 0x40 ADD PUSH1 0x40 MSTORE DUP1 PUSH1 0xA DUP2 MSTORE PUSH1 0x20 ADD PUSH32 0x507974686F6E204F4F5000000000000000000000000000000000000000000000 DUP2 MSTORE POP DUP2 MSTORE PUSH1 0x20 ADD PUSH1 0x23 DUP2 MSTORE POP PUSH1 0x0 DUP1 DUP3 ADD MLOAD DUP2 PUSH1 0x0 ADD SWAP1 DUP1 MLOAD SWAP1 PUSH1 0x20 ADD SWAP1 PUSH2 0x12F SWAP3 SWAP2 SWAP1 PUSH2 0x368 JUMP JUMPDEST POP PUSH1 0x20 DUP3 ADD MLOAD DUP2 PUSH1 0x1 ADD SWAP1 DUP1 MLOAD SWAP1 PUSH1 0x20 ADD SWAP1 PUSH2 0x14C SWAP3 SWAP2 SWAP1 PUSH2 0x368 JUMP JUMPDEST POP PUSH1 0x40 DUP3 ADD MLOAD DUP2 PUSH1 0x2 ADD SSTORE SWAP1 POP POP JUMP JUMPDEST PUSH1 0x60 PUSH1 0x0 DUP1 ADD DUP1 SLOAD PUSH1 0x1 DUP2 PUSH1 0x1 AND ISZERO PUSH2 0x100 MUL SUB AND PUSH1 0x2 SWAP1 DIV DUP1 PUSH1 0x1F ADD PUSH1 0x20 DUP1 SWAP2 DIV MUL PUSH1 0x20 ADD PUSH1 0x40 MLOAD SWAP1 DUP2 ADD PUSH1 0x40 MSTORE DUP1 SWAP3 SWAP2 SWAP1 DUP2 DUP2 MSTORE PUSH1 0x20 ADD DUP3 DUP1 SLOAD PUSH1 0x1 DUP2 PUSH1 0x1 AND ISZERO PUSH2 0x100 MUL SUB AND PUSH1 0x2 SWAP1 DIV DUP1 ISZERO PUSH2 0x1F6 JUMPI DUP1 PUSH1 0x1F LT PUSH2 0x1CB JUMPI PUSH2 0x100 DUP1 DUP4 SLOAD DIV MUL DUP4 MSTORE SWAP2 PUSH1 0x20 ADD SWAP2 PUSH2 0x1F6 JUMP JUMPDEST DUP3 ADD SWAP2 SWAP1 PUSH1 0x0 MSTORE PUSH1 0x20 PUSH1 0x0 KECCAK256 SWAP1 JUMPDEST DUP2 SLOAD DUP2 MSTORE SWAP1 PUSH1 0x1 ADD SWAP1 PUSH1 0x20 ADD DUP1 DUP4 GT PUSH2 0x1D9 JUMPI DUP3 SWAP1 SUB PUSH1 0x1F AND DUP3 ADD SWAP2 JUMPDEST POP POP POP POP POP SWAP1 POP SWAP1 JUMP JUMPDEST PUSH2 0x208 PUSH2 0x3F6 JUMP JUMPDEST PUSH1 0x0 PUSH1 0x40 MLOAD DUP1 PUSH1 0x60 ADD PUSH1 0x40 MSTORE SWAP1 DUP2 PUSH1 0x0 DUP3 ADD DUP1 SLOAD PUSH1 0x1 DUP2 PUSH1 0x1 AND ISZERO PUSH2 0x100 MUL SUB AND PUSH1 0x2 SWAP1 DIV DUP1 PUSH1 0x1F ADD PUSH1 0x20 DUP1 SWAP2 DIV MUL PUSH1 0x20 ADD PUSH1 0x40 MLOAD SWAP1 DUP2 ADD PUSH1 0x40 MSTORE DUP1 SWAP3 SWAP2 SWAP1 DUP2 DUP2 MSTORE PUSH1 0x20 ADD DUP3 DUP1 SLOAD PUSH1 0x1 DUP2 PUSH1 0x1 AND ISZERO PUSH2 0x100 MUL SUB AND PUSH1 0x2 SWAP1 DIV DUP1 ISZERO PUSH2 0x2AE JUMPI DUP1 PUSH1 0x1F LT PUSH2 0x283 JUMPI PUSH2 0x100 DUP1 DUP4 SLOAD DIV MUL DUP4 MSTORE SWAP2 PUSH1 0x20 ADD SWAP2 PUSH2 0x2AE JUMP JUMPDEST DUP3 ADD SWAP2 SWAP1 PUSH1 0x0 MSTORE PUSH1 0x20 PUSH1 0x0 KECCAK256 SWAP1 JUMPDEST DUP2 SLOAD DUP2 MSTORE SWAP1 PUSH1 0x1 ADD SWAP1 PUSH1 0x20 ADD DUP1 DUP4 GT PUSH2 0x291 JUMPI DUP3 SWAP1 SUB PUSH1 0x1F AND DUP3 ADD SWAP2 JUMPDEST POP POP POP POP POP DUP2 MSTORE PUSH1 0x20 ADD PUSH1 0x1 DUP3 ADD DUP1 SLOAD PUSH1 0x1 DUP2 PUSH1 0x1 AND ISZERO PUSH2 0x100 MUL SUB AND PUSH1 0x2 SWAP1 DIV DUP1 PUSH1 0x1F ADD PUSH1 0x20 DUP1 SWAP2 DIV MUL PUSH1 0x20 ADD PUSH1 0x40 MLOAD SWAP1 DUP2 ADD PUSH1 0x40 MSTORE DUP1 SWAP3 SWAP2 SWAP1 DUP2 DUP2 MSTORE PUSH1 0x20 ADD DUP3 DUP1 SLOAD PUSH1 0x1 DUP2 PUSH1 0x1 AND ISZERO PUSH2 0x100 MUL SUB AND PUSH1 0x2 SWAP1 DIV DUP1 ISZERO PUSH2 0x350 JUMPI DUP1 PUSH1 0x1F LT PUSH2 0x325 JUMPI PUSH2 0x100 DUP1 DUP4 SLOAD DIV MUL DUP4 MSTORE SWAP2 PUSH1 0x20 ADD SWAP2 PUSH2 0x350 JUMP JUMPDEST DUP3 ADD SWAP2 SWAP1 PUSH1 0x0 MSTORE PUSH1 0x20 PUSH1 0x0 KECCAK256 SWAP1 JUMPDEST DUP2 SLOAD DUP2 MSTORE SWAP1 PUSH1 0x1 ADD SWAP1 PUSH1 0x20 ADD DUP1 DUP4 GT PUSH2 0x333 JUMPI DUP3 SWAP1 SUB PUSH1 0x1F AND DUP3 ADD SWAP2 JUMPDEST POP POP POP POP POP DUP2 MSTORE PUSH1 0x20 ADD PUSH1 0x2 DUP3 ADD SLOAD DUP2 MSTORE POP POP SWAP1 POP SWAP1 JUMP JUMPDEST DUP3 DUP1 SLOAD PUSH1 0x1 DUP2 PUSH1 0x1 AND ISZERO PUSH2 0x100 MUL SUB AND PUSH1 0x2 SWAP1 DIV SWAP1 PUSH1 0x0 MSTORE PUSH1 0x20 PUSH1 0x0 KECCAK256 SWAP1 PUSH1 0x1F ADD PUSH1 0x20 SWAP1 DIV DUP2 ADD SWAP3 DUP3 PUSH2 0x39E JUMPI PUSH1 0x0 DUP6 SSTORE PUSH2 0x3E5 JUMP JUMPDEST DUP3 PUSH1 0x1F LT PUSH2 0x3B7 JUMPI DUP1 MLOAD PUSH1 0xFF NOT AND DUP4 DUP1 ADD OR DUP6 SSTORE PUSH2 0x3E5 JUMP JUMPDEST DUP3 DUP1 ADD PUSH1 0x1 ADD DUP6 SSTORE DUP3 ISZERO PUSH2 0x3E5 JUMPI SWAP2 DUP3 ADD JUMPDEST DUP3 DUP2 GT ISZERO PUSH2 0x3E4 JUMPI DUP3 MLOAD DUP3 SSTORE SWAP2 PUSH1 0x20 ADD SWAP2 SWAP1 PUSH1 0x1 ADD SWAP1 PUSH2 0x3C9 JUMP JUMPDEST JUMPDEST POP SWAP1 POP PUSH2 0x3F2 SWAP2 SWAP1 PUSH2 0x417 JUMP JUMPDEST POP SWAP1 JUMP JUMPDEST PUSH1 0x40 MLOAD DUP1 PUSH1 0x60 ADD PUSH1 0x40 MSTORE DUP1 PUSH1 0x60 DUP2 MSTORE PUSH1 0x20 ADD PUSH1 0x60 DUP2 MSTORE PUSH1 0x20 ADD PUSH1 0x0 DUP2 MSTORE POP SWAP1 JUMP JUMPDEST JUMPDEST DUP1 DUP3 GT ISZERO PUSH2 0x430 JUMPI PUSH1 0x0 DUP2 PUSH1 0x0 SWAP1 SSTORE POP PUSH1 0x1 ADD PUSH2 0x418 JUMP JUMPDEST POP SWAP1 JUMP JUMPDEST PUSH1 0x0 PUSH2 0x43F DUP3 PUSH2 0x550 JUMP JUMPDEST PUSH2 0x449 DUP2 DUP6 PUSH2 0x55B JUMP JUMPDEST SWAP4 POP PUSH2 0x459 DUP2 DUP6 PUSH1 0x20 DUP7 ADD PUSH2 0x587 JUMP JUMPDEST PUSH2 0x462 DUP2 PUSH2 0x5BA JUMP JUMPDEST DUP5 ADD SWAP2 POP POP SWAP3 SWAP2 POP POP JUMP JUMPDEST PUSH1 0x0 PUSH2 0x478 DUP3 PUSH2 0x550 JUMP JUMPDEST PUSH2 0x482 DUP2 DUP6 PUSH2 0x56C JUMP JUMPDEST SWAP4 POP PUSH2 0x492 DUP2 DUP6 PUSH1 0x20 DUP7 ADD PUSH2 0x587 JUMP JUMPDEST PUSH2 0x49B DUP2 PUSH2 0x5BA JUMP JUMPDEST DUP5 ADD SWAP2 POP POP SWAP3 SWAP2 POP POP JUMP JUMPDEST PUSH1 0x0 PUSH1 0x60 DUP4 ADD PUSH1 0x0 DUP4 ADD MLOAD DUP5 DUP3 SUB PUSH1 0x0 DUP7 ADD MSTORE PUSH2 0x4C3 DUP3 DUP3 PUSH2 0x434 JUMP JUMPDEST SWAP2 POP POP PUSH1 0x20 DUP4 ADD MLOAD DUP5 DUP3 SUB PUSH1 0x20 DUP7 ADD MSTORE PUSH2 0x4DD DUP3 DUP3 PUSH2 0x434 JUMP JUMPDEST SWAP2 POP POP PUSH1 0x40 DUP4 ADD MLOAD PUSH2 0x4F2 PUSH1 0x40 DUP7 ADD DUP3 PUSH2 0x4FD JUMP JUMPDEST POP DUP1 SWAP2 POP POP SWAP3 SWAP2 POP POP JUMP JUMPDEST PUSH2 0x506 DUP2 PUSH2 0x57D JUMP JUMPDEST DUP3 MSTORE POP POP JUMP JUMPDEST PUSH1 0x0 PUSH1 0x20 DUP3 ADD SWAP1 POP DUP2 DUP2 SUB PUSH1 0x0 DUP4 ADD MSTORE PUSH2 0x526 DUP2 DUP5 PUSH2 0x46D JUMP JUMPDEST SWAP1 POP SWAP3 SWAP2 POP POP JUMP JUMPDEST PUSH1 0x0 PUSH1 0x20 DUP3 ADD SWAP1 POP DUP2 DUP2 SUB PUSH1 0x0 DUP4 ADD MSTORE PUSH2 0x548 DUP2 DUP5 PUSH2 0x4A6 JUMP JUMPDEST SWAP1 POP SWAP3 SWAP2 POP POP JUMP JUMPDEST PUSH1 0x0 DUP2 MLOAD SWAP1 POP SWAP2 SWAP1 POP JUMP JUMPDEST PUSH1 0x0 DUP3 DUP3 MSTORE PUSH1 0x20 DUP3 ADD SWAP1 POP SWAP3 SWAP2 POP POP JUMP JUMPDEST PUSH1 0x0 DUP3 DUP3 MSTORE PUSH1 0x20 DUP3 ADD SWAP1 POP SWAP3 SWAP2 POP POP JUMP JUMPDEST PUSH1 0x0 DUP2 SWAP1 POP SWAP2 SWAP1 POP JUMP JUMPDEST PUSH1 0x0 JUMPDEST DUP4 DUP2 LT ISZERO PUSH2 0x5A5 JUMPI DUP1 DUP3 ADD MLOAD DUP2 DUP5 ADD MSTORE PUSH1 0x20 DUP2 ADD SWAP1 POP PUSH2 0x58A JUMP JUMPDEST DUP4 DUP2 GT ISZERO PUSH2 0x5B4 JUMPI PUSH1 0x0 DUP5 DUP5 ADD MSTORE JUMPDEST POP POP POP POP JUMP JUMPDEST PUSH1 0x0 PUSH1 0x1F NOT PUSH1 0x1F DUP4 ADD AND SWAP1 POP SWAP2 SWAP1 POP JUMP INVALID LOG2 PUSH5 0x6970667358 0x22 SLT KECCAK256 PUSH16 0x93915D9DB1F4522AD4DB4402840596E7 SLOAD PC LT INVALID 0xC3 0x26 0x5F 0xE7 EXTCODESIZE LOG1 INVALID MSIZE LOG4 0xE8 SELFBALANCE PUSH5 0x736F6C6343 STOP SMOD DIV STOP CALLER "
				},
				"gasEstimates": {
					"creation": {
						"codeDepositCost": "307400",
						"executionCost": "349",
						"totalCost": "307749"
					},
					"external": {
						"getCourse()": "infinite",
						"getCourseId()": "infinite",
						"setCourse()": "infinite"
					}
				},
				"methodIdentifiers": {
					"getCourse()": "8c14acd5",
					"getCourseId()": "50808e8b",
					"setCourse()": "49269b6f"
				}
			},
			"storageLayout": {
				"storage": [
					{
						"astId": 11,
						"contract": "contracts/Demo5.sol:Demo5",
						"label": "currentCourse",
						"offset": 0,
						"slot": "0",
						"type": "t_struct(Course)9_storage"
					}
				],
				"types": {
					"t_string_storage": {
						"encoding": "bytes",
						"label": "string",
						"numberOfBytes": "32"
					},
					"t_struct(Course)9_storage": {
						"encoding": "inplace",
						"label": "struct Demo5.Course",
						"members": [
							{
								"astId": 4,
								"contract": "contracts/Demo5.sol:Demo5",
								"label": "id",
								"offset": 0,
								"slot": "0",
								"type": "t_string_storage"
							},
							{
								"astId": 6,
								"contract": "contracts/Demo5.sol:Demo5",
								"label": "name",
								"offset": 0,
								"slot": "1",
								"type": "t_string_storage"
							},
							{
								"astId": 8,
								"contract": "contracts/Demo5.sol:Demo5",
								"label": "duration",
								"offset": 0,
								"slot": "2",
								"type": "t_uint256"
							}
						],
						"numberOfBytes": "96"
					},
					"t_uint256": {
						"encoding": "inplace",
						"label": "uint256",
						"numberOfBytes": "32"
					}
				}
			},
			"userdoc": {
				"kind": "user",
				"methods": {},
				"version": 1
			}
		}
	}
}